:020000040800F2
:1000000000500020D5690008CD680008D1680008BC
:10001000D5680008D9680008DD6800080000000005
:10002000000000000000000000000000E16800087F
:10003000E568000800000000E9680008ED680008B5
:100040001D6A00081D6A00081D6A00081D6A000874
:100050001D6A00081D6A0008FD680008056900089F
:100060000D690008156900081D6900081D6A00086F
:100070001D6A00081D6A00081D6A00081D6A000844
:10008000256900081D6A00081D6A00081D6A00082D
:100090001D6A00081D6A00081D6A00081D6A000824
:1000A0001D6A00081D6A00081D6A00081D6A000814
:1000B0001D6A0008316900083D6900081D6A0008D2
:1000C0001D6A00081D6A00081D6A00081D6A0008F4
:1000D0001D6A00081D6A00081D6A00081D6A0008E4
:1000E0001D6A00081D6A00081D6A00080000000063
:1000F0000000000000000000000000000000000000
:0C01000000000000000000005FF808F1A3
:1001100010B5054C237833B9044B13B10448AFF341
:1001200000800123237010BD78060020000000002D
:10013000248B000808B5034B1BB103490348AFF3F8
:10014000008008BD000000007C060020248B000811
:1001500081F0004102E000BF83F0004330B54FEA78
:1001600041044FEA430594EA050F08BF90EA020FE5
:100170001FBF54EA000C55EA020C7FEA645C7FEA78
:10018000655C00F0E2804FEA5454D4EB5555B8BF9B
:100190006D420CDD2C4480EA020281EA030382EA0C
:1001A000000083EA010180EA020281EA0303362D9E
:1001B00088BF30BD11F0004F4FEA01314FF4801C71
:1001C0004CEA113102D0404261EB410113F0004F83
:1001D0004FEA03334CEA133302D0524263EB43033A
:1001E00094EA050F00F0A780A4F10104D5F1200ED8
:1001F0000DDB02FA0EFC22FA05F2801841F1000133
:1002000003FA0EF2801843FA05F359410EE0A5F106
:1002100020050EF1200E012A03FA0EFC28BF4CF037
:10022000020C43FA05F3C01851EBE37101F00045ED
:1002300007D54FF0000EDCF1000C7EEB00006EEBFA
:100240000101B1F5801F1BD3B1F5001F0CD3490884
:100250005FEA30004FEA3C0C04F101044FEA4452DB
:1002600012F5800F80F09A80BCF1004F08BF5FEA62
:10027000500C50F1000041EB045141EA050130BD42
:100280005FEA4C0C404141EB010111F4801FA4F1E5
:100290000104E9D191F0000F04BF01460020B1FA3A
:1002A00081F308BF2033A3F10B03B3F120020CDA72
:1002B0000C3208DD02F1140CC2F10C0201FA0CF050
:1002C00021FA02F10CE002F11402D8BFC2F1200CB5
:1002D00001FA02F120FA0CFCDCBF41EA0C0190406B
:1002E000E41AA2BF01EB0451294330BD6FEA0404B4
:1002F0001F3C1CDA0C340EDC04F11404C4F120029F
:1003000020FA04F001FA02F340EA030021FA04F3B0
:1003100045EA030130BDC4F10C04C4F1200220FA07
:1003200002F001FA04F340EA0300294630BD21FA45
:1003300004F0294630BD94F0000F83F4801306BF0B
:1003400081F480110134013D4EE77FEA645C18BFFF
:100350007FEA655C29D094EA050F08BF90EA020F96
:1003600005D054EA000C04BF1946104630BD91EA8E
:10037000030F1EBF0021002030BD5FEA545C05D191
:100380004000494128BF41F0004130BD14F58004D0
:100390003CBF01F5801130BD01F0004545F0FE4144
:1003A00041F470014FF0000030BD7FEA645C1ABF79
:1003B000194610467FEA655C1CBF0B46024650EAB0
:1003C000013406BF52EA033591EA030F41F40021DC
:1003D00030BD00BF90F0000F04BF0021704730B562
:1003E0004FF4806404F132044FF000054FF0000137
:1003F00050E700BF90F0000F04BF0021704730B5F8
:100400004FF4806404F1320410F0004548BF4042CC
:100410004FF000013EE700BF42004FEAE2014FEA21
:1004200031014FEA02701FBF12F07F4393F07F4FFC
:1004300081F06051704732F07F4208BF704793F0FF
:100440007F4F04BF41F40021704730B54FF4607412
:1004500001F0004521F000411CE700BF50EA010215
:1004600008BF704730B54FF000050AE050EA0102BE
:1004700008BF704730B511F0004502D5404261EB2E
:1004800041014FF4806404F132045FEA915C3FF46F
:10049000D8AE4FF003025FEADC0C18BF03325FEA0C
:1004A000DC0C18BF033202EBDC02C2F1200300FABD
:1004B00003FC20FA02F001FA03FE40EA0E0021FAE2
:1004C00002F11444BDE600BF80F0004002E000BF2E
:1004D00081F0004142001FBF5FEA410392EA030F2F
:1004E0007FEA226C7FEA236C6AD04FEA1262D2EB79
:1004F0001363C1BFD218414048404140B8BF5B427E
:10050000192B88BF704710F0004F40F4000020F016
:100510007F4018BF404211F0004F41F4000121F02C
:100520007F4118BF494292EA030F3FD0A2F1010276
:1005300041FA03FC10EB0C00C3F1200301FA03F1B4
:1005400000F0004302D5494260EB4000B0F5000FD7
:1005500013D3B0F1807F06D340084FEA310102F196
:100560000102FE2A51D2B1F1004F40EBC25008BF48
:1005700020F0010040EA03007047490040EB000012
:1005800010F4000FA2F10102EDD1B0FA80FCACF141
:10059000080CB2EB0C0200FA0CF0AABF00EBC25040
:1005A00052421843BCBFD0401843704792F0000F2E
:1005B00081F4000106BF80F400000132013BB5E781
:1005C0004FEA41037FEA226C18BF7FEA236C21D0F7
:1005D00092EA030F04D092F0000F08BF084670475C
:1005E00090EA010F1CBF0020704712F07F4F04D12A
:1005F000400028BF40F00040704712F100723CBF3D
:1006000000F50000704700F0004343F0FE4040F466
:10061000000070477FEA226216BF08467FEA236324
:100620000146420206BF5FEA412390EA010F40F40F
:10063000800070474FF0000304E000BF10F000435B
:1006400048BF40425FEA000C08BF704743F0964342
:1006500001464FF000001CE050EA010208BF70475D
:100660004FF000030AE000BF50EA010208BF7047E4
:1006700011F0004302D5404261EB41015FEA010CF9
:1006800002BF84460146002043F0B64308BFA3F1F1
:100690008053A3F50003BCFA8CF2083AA3EBC253D3
:1006A00010DB01FA02FC634400FA02FCC2F12002F2
:1006B000BCF1004F20FA02F243EB020008BF20F029
:1006C0000100704702F1200201FA02FCC2F120028F
:1006D00050EA4C0021FA02F243EB020008BF20EA84
:1006E000DC7070474FF0FF0C1CEAD0521EBF1CEAB2
:1006F000D15392EA0C0F93EA0C0F6FD01A4480EAA0
:10070000010C400218BF5FEA41211ED04FF0006388
:1007100043EA501043EA5111A0FB01310CF00040B4
:10072000B1F5000F3EBF490041EAD3715B0040EADA
:10073000010062F17F02FD2A1DD8B3F1004F40EBAA
:10074000C25008BF20F00100704790F0000F0CF07D
:10075000004C08BF49024CEA502040EA51207F3A41
:10076000C2BFD2F1FF0340EAC250704740F400001C
:100770004FF00003013A5DDC12F1190FDCBF00F00D
:1007800000407047C2F10002410021FA02F1C2F1BB
:10079000200200FA02FC5FEA310040F1000053EA57
:1007A0004C0308BF20EADC70704792F0000F00F0A5
:1007B000004C02BF400010F4000F013AF9D040EAAB
:1007C0000C0093F0000F01F0004C02BF490011F43F
:1007D000000F013BF9D041EA0C018FE70CEAD1533D
:1007E00092EA0C0F18BF93EA0C0F0AD030F0004CBD
:1007F00018BF31F0004CD8D180EA010000F0004071
:10080000704790F0000F17BF90F0004F084691F02E
:10081000000F91F0004F14D092EA0C0F01D1420268
:100820000FD193EA0C0F03D14B0218BF084608D131
:1008300080EA010000F0004040F0FE4040F400007B
:10084000704740F0FE4040F4400070474FF0FF0C0E
:100850001CEAD0521EBF1CEAD15392EA0C0F93EA55
:100860000C0F69D0A2EB030280EA010C49024FEAA7
:10087000402037D04FF0805343EA111143EA101360
:100880000CF000408B4238BF5B0042F17D024FF418
:10089000000C8B4224BF5B1A40EA0C00B3EB510FF3
:1008A00024BFA3EB510340EA5C00B3EB910F24BFDC
:1008B000A3EB910340EA9C00B3EBD10F24BFA3EB61
:1008C000D10340EADC001B0118BF5FEA1C1CE0D129
:1008D000FD2A3FF650AF8B4240EBC25008BF20F0DC
:1008E000010070470CF0004C4CEA50207F32C2BF30
:1008F000D2F1FF0340EAC250704740F400004FF0CD
:100900000003013A37E792F0000F00F0004C02BFFD
:10091000400010F4000F013AF9D040EA0C0093F0C7
:10092000000F01F0004C02BF490011F4000F013B21
:10093000F9D041EA0C0195E70CEAD15392EA0C0F89
:1009400008D142027FF47DAF93EA0C0F7FF470AFC1
:10095000084676E793EA0C0F04D14B023FF44CAF04
:1009600008466EE730F0004C18BF31F0004CCAD199
:1009700030F000427FF45CAF31F000437FF43CAFD5
:100980005FE700BF034613F8012B002AFBD1181ABA
:100990000138704770B54FF0FF0C4CF4E06C1CEA66
:1009A00011541DBF1CEA135594EA0C0F95EA0C0F65
:1009B00000F0DEF82C4481EA030621EA4C5123EAD8
:1009C0004C5350EA013518BF52EA033541F4801107
:1009D00043F4801338D0A0FB02CE4FF00005E1FBBA
:1009E00002E506F00042E0FB03E54FF00006E1FB04
:1009F00003569CF0000F18BF4EF0010EA4F1FF0447
:100A0000B6F5007F64F5407404D25FEA4E0E6D4186
:100A100046EB060642EAC62141EA55514FEAC52097
:100A200040EA5E504FEACE2EB4F1FD0C88BFBCF513
:100A3000E06F1ED8BEF1004F08BF5FEA500E50F1C4
:100A4000000041EB045170BD06F0004646EA01018A
:100A500040EA020081EA0301B4EB5C04C2BFD4EBBC
:100A60000C0541EA045170BD41F480114FF0000EB5
:100A7000013C00F3AB8014F1360FDEBF002001F023
:100A8000004170BDC4F10004203C35DA0C341BDC9D
:100A900004F11404C4F1200500FA05F320FA04F06F
:100AA00001FA05F240EA020001F0004221F00041A3
:100AB00010EBD37021FA04F642EB06015EEA430E16
:100AC00008BF20EAD37070BDC4F10C04C4F1200546
:100AD00000FA04F320FA05F001FA04F240EA0200F9
:100AE00001F0004110EBD37041F100015EEA430ECA
:100AF00008BF20EAD37070BDC4F1200500FA05F2EA
:100B00004EEA020E20FA04F301FA05F243EA020368
:100B100021FA04F001F0004121FA04F220EA020077
:100B200000EBD3705EEA430E08BF20EAD37070BDBD
:100B300094F0000F0FD101F00046400041EB01019D
:100B400011F4801F08BF013CF7D041EA060195F07F
:100B5000000F18BF704703F00046520043EB030339
:100B600013F4801F08BF013DF7D043EA0603704726
:100B700094EA0C0F0CEA135518BF95EA0C0F0CD031
:100B800050EA410618BF52EA4306D1D181EA030177
:100B900001F000414FF0000070BD50EA410606BF71
:100BA0001046194652EA430619D094EA0C0F02D1B6
:100BB00050EA013613D195EA0C0F05D152EA0336FB
:100BC0001CBF104619460AD181EA030101F0004119
:100BD00041F0FE4141F470014FF0000070BD41F062
:100BE000FE4141F4780170BD70B54FF0FF0C4CF43C
:100BF000E06C1CEA11541DBF1CEA135594EA0C0F5B
:100C000095EA0C0F00F0A7F8A4EB050481EA030EA7
:100C100052EA03354FEA013100F088804FEA03338E
:100C20004FF0805545EA131343EA12634FEA02225C
:100C300045EA111545EA10654FEA00260EF000411D
:100C40009D4208BF964244F1FD0404F5407402D26F
:100C50005B084FEA3202B61A65EB03055B084FEA00
:100C600032024FF480104FF4002CB6EB020E75EBFD
:100C7000030E22BFB61A754640EA0C005B084FEA25
:100C80003202B6EB020E75EB030E22BFB61A7546A2
:100C900040EA5C005B084FEA3202B6EB020E75EBED
:100CA000030E22BFB61A754640EA9C005B084FEA65
:100CB0003202B6EB020E75EB030E22BFB61A754672
:100CC00040EADC0055EA060E18D04FEA051545EA61
:100CD00016754FEA06164FEAC30343EA52734FEA0A
:100CE000C2025FEA1C1CC0D111F4801F0BD141EA83
:100CF00000014FF000004FF0004CB6E711F4801FE8
:100D000004BF01430020B4F1FD0C88BFBCF5E06FC7
:100D10003FF6AFAEB5EB030C04BFB6EB020C5FEAD7
:100D2000500C50F1000041EB045170BD0EF0004E2C
:100D30004EEA113114EB5C04C2BFD4EB0C0541EA5E
:100D4000045170BD41F480114FF0000E013C90E65B
:100D500045EA060E8DE60CEA135594EA0C0F08BF1F
:100D600095EA0C0F3FF43BAF94EA0C0F0AD150EA1E
:100D700001347FF434AF95EA0C0F7FF425AF1046B1
:100D800019462CE795EA0C0F06D152EA03353FF4D9
:100D9000FDAE1046194622E750EA410618BF52EA56
:100DA00043067FF4C5AE50EA41047FF40DAF52EA2A
:100DB00043057FF4EBAE12E74FF0FF3C06E000BFC7
:100DC0004FF0010C02E000BF4FF0010C4DF804CDD4
:100DD0004FEA410C7FEA6C5C4FEA430C18BF7FEA94
:100DE0006C5C1BD001B050EA410C0CBF52EA430CC2
:100DF00091EA030F02BF90EA020F0020704710F142
:100E0000000F91EA030F58BF994208BF90422CBFD0
:100E1000D8176FEAE37040F0010070474FEA410CC9
:100E20007FEA6C5C02D150EA013C07D14FEA430CE7
:100E30007FEA6C5CD6D152EA033CD3D05DF8040B58
:100E4000704700BF8446104662468C46194663468A
:100E500000E000BF01B5FFF7B7FF002848BF10F161
:100E6000000F01BD4DF808EDFFF7F4FF0CBF0120A6
:100E700000205DF808FB00BF4DF808EDFFF7EAFF22
:100E800034BF012000205DF808FB00BF4DF808EDDD
:100E9000FFF7E0FF94BF012000205DF808FB00BFD2
:100EA0004DF808EDFFF7CEFF94BF012000205DF85C
:100EB00008FB00BF4DF808EDFFF7C4FF34BF012069
:100EC00000205DF808FB00BF4FEA410C7FEA6C5C34
:100ED00002D150EA013C0AD14FEA430C7FEA6C5C34
:100EE00002D152EA033C02D14FF0000070474FF0AC
:100EF000010070474FEA410212F5001215D211D5D8
:100F00006FF47873B3EB625212D94FEAC12343F006
:100F1000004343EA505311F0004F23FA02F018BF88
:100F2000404270474FF00000704750EA013005D151
:100F300011F0004008BF6FF0004070474FF0000014
:100F4000704700BF10B5044601F01EFC064BA3FB22
:100F50000030800900F042FA214600224FF0FF30B5
:100F600000F0FAF9002010BDD34D6210074A08B511
:100F70001368032043F01003136000F0DBF9002036
:100F8000FFF7E0FF05F03AFB002008BD002002401B
:100F9000024A136801331360704700BF94060020B3
:100FA000014B1868704700BF9406002010B582B04E
:100FB0000190FFF7F5FF0446FFF7F2FF019B001BCE
:100FC0009842F9D302B010BD02460020F0B492F866
:100FD000243082B0012B019000F0A88001204B68E2
:100FE0000C68062B82F82400106844D90C2B00F200
:100FF0008280066B4FF4787595FAA5F7B7FA87F7F4
:10100000073B95FAA5F5B5FA85F54FF01F0C03FBE4
:1010100007F703FB05F30CFA07F504FA03F326EAD6
:1010200005052B430363092C8E6841D9C368382515
:1010300095FAA5F7B7FA87F7A4F10A0195FAA5F58D
:10104000B5FA85F54FF0070C01FB07F701FB05F139
:101050000CFA07F723EA070306FA01F11943A4F192
:101060001003012BC1603DD90020002382F82430F9
:1010700002B0F0BC7047466B4FF4787595FAA5F74F
:10108000B7FA87F7013B95FAA5F5B5FA85F54FF064
:101090001F0C03FB07F703FB05F30CFA07F526EA21
:1010A000050504FA03F32B43092C43638E68BDD86E
:1010B0000569382393FAA3F1B1FA81F193FAA3F306
:1010C000B3FA83F3072704FB01F104FB03F38F401A
:1010D00006FA03F125EA07030B430361A4F11003A9
:1010E000012BC1D8224B984224D0936A012043F0AF
:1010F00020039362B9E7C66A4FF4787595FAA5F7AD
:10110000B7FA87F70D3B95FAA5F5B5FA85F54FF0D7
:101110001F0C03FB07F703FB05F30CFA07F504FAB2
:1011200003F326EA05052B43C3627CE7022002B0E5
:10113000F0BC704783681B0296D48368102C43F47C
:101140000003836090D10B4B0B491B68A1FB031379
:101150009B0C03EB83035B000193019B002B83D06B
:10116000019B013B0193019B002BF9D17CE700BF60
:1011700000240140A404002083DE1B4338B503682B
:101180009A68D20701D4002038BD9A68044622F03C
:1011900001029A60FFF704FF054623689B68DB079E
:1011A000F1D5FFF7FDFE401B0228F6D90120A36A06
:1011B00043F01003A362E36A0343E36238BD00BF58
:1011C00000285ED0F8B5836A0446002B4CD0204638
:1011D000FFF7D4FFA36A13F010033FD100283DD1DD
:1011E000A26AE56822F4885222F0020242F002026A
:1011F000A262022292FAA2F2B2FA82F2E66961686F
:10120000A76805FA02F23143B7F5807F41EA02018F
:101210006669226837D0012F56D0012E59D0556803
:10122000424B25F4694555600546966833400B43AB
:101230009360D36A3E4E23F470032B43D3629368CA
:101240001E408E4237D00120A36A23F0120343F0E0
:101250001003A362E36A0343E362F8BDA36A0120BB
:1012600043F01003A362F8BDC36280F8243005F098
:101270000DFA2046FFF782FFA36A13F01003EDD1A9
:10128000ACE701207047012E4CD05568274B25F460
:10129000694545F48075556095682B400B43936014
:1012A0004FF4700595FAA5F5B5FA85F52369013B6C
:1012B00003FA05F5BDE70023E362A36A23F0030305
:1012C00043F00103A362F8BD012E08BF4FF4807301
:1012D000DBD1D5B1A56A45F02005A562E56A45F0E8
:1012E0000105E5625668114D26F4694633435360A3
:1012F0009368B7F5807F05EA030545EA0105956027
:10130000CED0012FCCD0002593E74FF4604595FA5D
:10131000A5F5B5FA85F6A56943F40063013DB5402E
:101320002B43DFE73B46002DD4D1EEE7FDF7E1FF8D
:10133000FE0E1FFF4FF6FF01064A0002D36800F4BD
:10134000E0600B4043F0BF6343F400330343D360DA
:10135000704700BF00ED00E0184B30B4DB68C3F30A
:101360000223C3F10705042D03F1040428BF04255B
:10137000062C19D94FF0FF34033B9C4022EA0404A9
:101380004FF0FF32AA4021EA020101FA03F22243A0
:1013900012010028D2B20ADB00F1604000F5614082
:1013A00080F8002330BC704700242346E8E7044B54
:1013B00000F00F0003441A7630BC704700ED00E0E7
:1013C000FCEC00E0012300F01F01034A40098B40C0
:1013D00042F82030704700BF00E100E00138B0F172
:1013E000807F0DD230B4F02500220721054B064C3A
:1013F000586084F82350104630BC9A6019607047DA
:101400000120704710E000E000ED00E0044A0428ED
:1014100013680CBF43F0040323F004031360704708
:1014200010E000E0704700BF08B5FFF7FBFF08BD04
:1014300018B390F8213070B402460BB980F8203010
:101440000024D2E901310125D0680B43116903431F
:101450000B431068D2E9056133430B430168D66939
:1014600021F47F51334321F030010B4303602046C8
:10147000546382F8215070BC70470120704700BF50
:10148000F0B490F82040012C25D0012502270468F3
:10149000466880F820502568102E25F0010580F858
:1014A0002170256063600BBFA260A160E160E26013
:1014B0002368002043F002032360236843F0040301
:1014C0002360236843F008032360236843F001038B
:1014D0002360F0BC70470220F0BC70470368A0494D
:1014E000A04A8B4270B5044610684FD014318B422D
:1014F00016D014318B4200F0B78014318B4200F0CB
:10150000BB8014318B4200F0A48014318B4200F078
:10151000BE80050148BF4FF0006105D4126889E024
:10152000000648BF802155D51A68160714D5042532
:1015300000201A688B4E22F008021A607160626BFC
:10154000216B42F00102626384F8215084F820008C
:1015500011B12046884723688149824A8B4212682C
:1015600018D014318B4236D014318B4259D15305E7
:1015700040F1B3807C4B1A68520700F19680794A9B
:1015800011684FF400720A420DD170BD010700F1DD
:10159000BF801268550700F1A980724A704B11682C
:1015A00002220A42F1D019688807EED51968890627
:1015B00032D5012000216B4DA36A6A60626B84F80A
:1015C0002100626384F82010002BDED02046BDE8A5
:1015D000704018471268520640F18E80634B1A68BB
:1015E000510748BF402140F18F801A6895062BD5DE
:1015F00011205C4DE26A696084F8210012B1204636
:1016000090472368564A574993420968C8D0143214
:1016100093424DD12022C4E7196821F002011960DC
:10162000C7E714318B422AD014318B4214D01431C5
:101630008B422FD0510102D51A68560774D44949FC
:101640004FF000720968ACE71A6822F004021A60D1
:10165000CEE7000365D4126856035BD4414A444B7D
:1016600011684FF400329CE7060548BF4FF4006153
:101670003FF55AAF12687AE706042BD4126850047B
:1016800063D4384A3B4B11684FF4005289E7050296
:1016900058D4126853024FD5374B1A68500722D4DA
:1016A000304A11684FF400127BE74FF480619CE7E9
:1016B000143293423FF465AF14329342E4D01432B3
:1016C000934249D01432934214BF4FF000724FF44A
:1016D000001266E74FF4004126E7224A224B1168C8
:1016E0004FF400725DE74FF480017EE71C4B1A68EF
:1016F000520705D5042178E71A4A1C4B116889E77F
:10170000184A116802224CE7164A1168202248E75D
:10171000082109E7164B1A68550708D54FF48021B0
:1017200063E74FF40021FFE64FF080615DE70D4A6B
:1017300011684FF4003234E70A4A0F4B11684FF436
:1017400000122EE74FF40001EEE60A4B1A6851072B
:1017500014D54FF4804148E74FF4003221E700BF31
:101760000800024000000240300002401C0002401D
:1017700058000240440002406C000240024A1168D6
:101780004FF400520DE700BF0000024090F8210026
:10179000704700BF2DE9F04F4FF0000883B044467A
:1017A000DFF8C0C1694EDFF8C0E102E00134102C5F
:1017B00078D001230A68A3401A409342F6D14D68BD
:1017C000122D00F09C807ED8022D00F0948074D9F8
:1017D000032D00F08D80112D02D1CB6803F1040898
:1017E000FF2A62D882460368A5004FF00F0909FA64
:1017F00005FB23EA0B0308FA05F52B43CAF8003072
:10180000D1F804A01AF0805FD0D0514F24F0030526
:10181000BB6905F1804543F00103BB61BB6905F578
:10182000803503F00103019304F0030B019B4FEAA1
:101830008B0BAB6809FA0BF9604523EA09030FD05B
:10184000704560D0434FB84278D0434FB8420CBF88
:101850004FF003094FF0040909FA0BFB43EA0B03AD
:10186000AB6033681AF4803F14BF13439343336073
:1018700073681AF4003F14BF134393437360B36853
:101880001AF4801F14BF13439343B360F3681AF430
:10189000001F04F1010414BF1A4323EA0202102CB2
:1018A000F26086D103B0BDE8F08F04F18045083DB9
:1018B0004368AD0000F1040A97E7A5B1012D8FD16F
:1018C000D1F80C808CE7254FBD420CD029D9244F8C
:1018D000BD4208D007F58037BD4204D0DFF88C90B8
:1018E0004D457FF47DAF8D68A5B94FF0040877E7CB
:1018F0004FF0000874E7CB6803F1080870E7CB6885
:1019000003F10C086CE74FF0010909FA0BFB43EAFD
:101910000B03A5E7012D0CBF036143614FF00808DD
:101920005EE7DFF84C904D45DDD009F580394D4537
:101930007FF456AF8D68002DD7D0EBE74FF002094A
:1019400009FA0BFB43EA0B038AE700BF00040140DE
:10195000001002400010014000140140000021105E
:101960000000311000080140000C0140000022106E
:10197000000011108368194214BF01200020704735
:1019800002B9090401617047C3685940C1607047DA
:10199000044A5169014200D1704708B5506104F012
:1019A000E7F808BD000401402DE9F84391460746D9
:1019B0001D460E0C8CB2FFF7F3FA8046B9F1000F0A
:1019C00018D13A6801E0691C24D1012E0CBF53697B
:1019D000936934EA030314BF01230023002BF2D1DF
:1019E0000020BDE8F883E5B1FFF7DAFAA0EB0800C4
:1019F000A84216D83A6801E06B1CF4D1012E0CBF46
:101A00005369936934EA03030CBF01230023002BBD
:101A1000F2D1E5E72DB1FFF7C3FAA0EB0800A84229
:101A2000CFD92022002387F8352087F834300320CF
:101A3000D7E700BFF8B5064615468CB2FFF7B0FAF7
:101A40000746336804E05969490506D46A1C16D173
:101A5000586934EA0000F6D1F8BD0425202100249D
:101A60001A68012042F400721A605A6922F48062F6
:101A70005A61B56386F8344086F83510F8BD25B153
:101A8000FFF78EFAC01BA842DBD92022002386F87C
:101A9000352086F834300320F8BD00BFF8B517466E
:101AA00005680E462A683B4642F480722A604FF071
:101AB000011100220446FFF777FF90B923692268DD
:101AC000B3F5804F0FD106F0FE0616613A460E4977
:101AD0002046FFF7AFFF18B1A36B042B01D1012003
:101AE000F8BD0320F8BDF31103F0060343F0F00343
:101AF000136106493A462046FFF79CFF0028EBD1C8
:101B00002368F6B21E61E1E702000100080001004F
:101B100070B505460C46FFF743FA06462A6804E00E
:101B20005069410507D4631C12D1536913F0800337
:101B3000F6D0002070BD042620245169012021F434
:101B400080615161AE6385F8343085F8354070BDF1
:101B500024B1FFF725FA801BA042DFD92022002103
:101B6000AB6B85F834101343AB63032085F8352045
:101B700070BD00BF00285ED090F8353070B503F01E
:101B8000FF020446002B51D02423226884F835300C
:101B900013682D4D23F00103136000F0FBFD2B4A69
:101BA0002368A2FB00126168920CA9425A6023D8F4
:101BB0004900B0FBF1F0C0F30B01032998BF0420EA
:101BC00001321A620022D4E9071620253143D86178
:101BD000D4E9036019603043D4E9051631439860B5
:101BE000D9601968104641F001011960A26384F8B8
:101BF000355084F8362070BD4FF4967505FB02F21F
:101C0000134EA568A6FB0262920901321A62A5B1C1
:101C100001EB810101EB8101B0FBF1F040F44040A8
:101C2000C0F30B02002A08BF0120CBE780F8342064
:101C300004F04CFDA8E70120704701EB4101B0FB27
:101C4000F1F040F40040EBE7A086010083DE1B4387
:101C5000D34D62102DE9F04390F8355083B0202D1C
:101C600009D116460AB11F465BB94FF00109484633
:101C700003B0BDE8F0834FF00209484603B0BDE869
:101C8000F083884642F21073012247490446FFF769
:101C90008BFE05460028EED194F83430012BEAD0B3
:101CA00010204FF001094FF0210C226841461368C3
:101CB00084F8349023F40063136084F835C00A9AE2
:101CC00084F836002046A563FFF7E8FE002832D1ED
:101CD00023685A6901929B690193019B0A992046E6
:101CE000FFF716FF7B1E81469BB2002844D1226875
:101CF000317811615169480725D41F460136002FFC
:101D0000ECD1FFF74DF90646226805E05169490517
:101D10003DD40A9B01331ED1536913F00403F5D05F
:101D200020200021136843F40073136084F8350009
:101D300084F83410A1E7A36B84F83450042B9CD0B2
:101D40004FF0030999E7002BDBD07378023FBFB255
:101D500013610236D3E70A9B2BB1FFF721F90A9BE7
:101D6000801B8342D0D220220021A36B84F8341040
:101D70001343A36384F83520A36B042BE0D12268BE
:101D80004FF00109136843F40073136075E70425ED
:101D90002020516921F480615161A56384F83430B9
:101DA00084F83500E8E700BF020010002DE9F04399
:101DB00090F8355083B0202D05D102B13BB90120F8
:101DC00003B0BDE8F083022003B0BDE8F0831E46F7
:101DD00015460F4642F21073012224490446FFF7CC
:101DE000E3FD80460028EED194F83430012BEAD090
:101DF00023684FF0210E1A464FF001094FF0100CE6
:101E00001B68E06A23F4006384F83490294642F8A2
:101E1000103B84F835E06562DFF858E0144D84F833
:101E200036C02685C4F8388033466685C0F828E079
:101E30000563FFF725FB394623222046FFF72EFED8
:101E400030B1A36B84F83480042BB8D00320BBE7F7
:101E500023685A6842F400625A605A6901929B6989
:101E600084F834000193019BAEE700BF020010002C
:101E7000BD1F0008E91F00082DE9F04F90F83560FC
:101E800083B0202E04D00223184603B0BDE8F08FA3
:101E90001D469146884642F2107301224449044689
:101EA000FFF782FD0028EED194F83430012BEAD000
:101EB0000121242207462668DFF8F4A0336808F0E1
:101EC000FE0823F4006384F83410336084F835206E
:101ED000A06332682B4642F4807232604FF00111E9
:101EE00000222046FFF760FD002851D12368C3F887
:101EF0001080FFF755F8064620684169436994F859
:101F00003520890703F48063D2B213D493B9A02A91
:101F100010D04FF0A00B55BB84F835B04269416931
:101F200094F83530920701F48061DBB202D409B92C
:101F3000A02BF0D1202684F835604369026813F0A5
:101F4000020F42F40072026042F2107341694FF0D6
:101F5000010213D121F48061416151462046FFF70F
:101F600023FDA8B901374F451CD22668B1E7FFF71A
:101F700017F8801BA8422068CED8CFE7019180696E
:101F80000B4901902046019DFFF70EFD034620B14D
:101F90000323184603B0BDE8F08F84F8356084F859
:101FA000340071E7012384F8356084F834006BE76E
:101FB00002001000704700BF704700BF38B5002115
:101FC0002025436A1C681846226822F48062226039
:101FD000598583F8355083F836109A6B42F0100219
:101FE0009A63FFF7E9FF38BD10B5446A2323204602
:101FF00000221049FFF7D8FC18B1A36B43F020036F
:10200000A3630021202023681A6842F400721A603A
:102010005A6822F400625A60618584F8350084F8B9
:102020003610A36B204613B9FFF7C4FF10BDFFF7AE
:10203000C3FF10BD040001002DE9F041036882B028
:10204000DD0704463CD5BC494A6802F00C02042A6C
:1020500000F0E2804A6802F00C02082A00F0D88002
:102060006368B3F5803F00F09481002B00F09B8102
:10207000B3F5A02F00F06D82AF4B1A6822F48032C6
:102080001A601A6822F480221A60FEF789FF4FF462
:1020900000370646A84D05E0FEF782FF801B642846
:1020A00000F27D8197FAA7F32A6897FAA7F3B3FAAB
:1020B00083F303F01F0322FA03F3DA07ECD5236856
:1020C0009F0740D59C4A516811F00C0F00F0BE806C
:1020D000516801F00C01082900F0B4802269002A3F
:1020E00000F08781012292FAA2F3B3FA83F39B00F6
:1020F00003F1844303F584031A60FEF751FF0227BE
:1021000006468D4D05E0FEF74BFF801B022800F2CE
:10211000468197FAA7F32A6897FAA7F3B3FA83F3ED
:1021200003F01F0322FA03F3D807ECD52968F8233C
:1021300093FAA3F3B3FA83F2636921F0F8019340B1
:102140000B432B6023681A072AD5A269002A00F0E6
:10215000E580012292FAA2F3B3FA83F377490227CA
:1021600041F82320FEF71CFF734D064605E0FEF7FD
:1021700017FF801B022800F2128197FAA7F397FA43
:10218000A7F36A6A97FAA7F3B3FA83F303F01F037E
:1021900022FA03F3DB07EAD50120FEF707FF2368E5
:1021A00059076AD4E3697BB3634D6A6802F00C0295
:1021B000082A5ED0022B4FF0807300F06D8193FAF5
:1021C000A3F3B3FA83F300229B0003F1844303F5E6
:1021D00084031A60FEF7E4FE2C4606464FF00075B5
:1021E00005E0FEF7DDFE801B022800F2D88095FA9C
:1021F000A5F3226895FAA5F3B3FA83F303F01F035E
:1022000022FA03F3DB07ECD4002002B0BDE8F08132
:102210004A68D0037FF524AF4FF4003292FAA2F15E
:102220004549096892FAA2F2B2FA82F202F01F025C
:1022300021FA02F2D1077FF543AF6268002A7FF4EA
:102240003FAF16E05268D6033FF548AF022292FA3C
:10225000A2F13949096892FAA2F2B2FA82F202F0C6
:102260001F0221FA02F2D50740F182802269012A79
:102270007ED0012002B0BDE8F0812F4A304BD169F9
:102280001D4641F08051D161D26902F08052019225
:10229000019A1A6842F480721A60FEF781FE0646BF
:1022A00004E0FEF77DFE801B642878D82B68DA05F1
:1022B000F7D5E368012B00F05981002B00F0BE80B8
:1022C000052B1D4B1A6A00F0578122F001021A6299
:1022D0001A6A22F004021A62FEF762FE4FF0020848
:1022E0000746154D41F2883610E06A6A98FAA8F35D
:1022F000B3FA83F303F01F0322FA03F3DB073FF57E
:1023000051AFFEF74DFEC01BB04248D898FAA8F373
:1023100098FAA8F3002BE8D02A6AE7E7012393FA9A
:10232000A3F3B3FA83F30549022741F82320FEF70C
:1023300037FE014D06460AE000100240800442428A
:1023400000700040FEF72CFE801B022827D897FA69
:10235000A7F397FAA7F36A6A97FAA7F3B3FA83F396
:1023600003F01F0322FA03F3D807EBD4236817E71F
:10237000854DF822286892FAA2F2B2FA82F16269D7
:1023800020F0F8008A4002432A601A077FF508AF60
:10239000DBE67D4A136843F48033136075E603205F
:1023A00002B0BDE8F08103F1804303F504331A68FD
:1023B0001D4622F480321A601A684FF4003722F466
:1023C00080221A60FEF7ECFD064604E0FEF7E8FD09
:1023D000801B6428E3D897FAA7F32A6897FAA7F333
:1023E000B3FA83F303F01F0322FA03F3DB07EDD400
:1023F00065E6012393FAA3F3B3FA83F39B0003F199
:10240000844303F584031A60FEF7CAFD02270646DB
:102410005D4D04E0FEF7C4FD801B0228BFD897FA8B
:10242000A7F32A6897FAA7F3B3FA83F303F01F031D
:1024300022FA03F3D907EDD4236884E603F180433D
:1024400003F504331A6A1D4622F001021A621A6A61
:102450004FF0020822F004021A62FEF7A1FD41F2D9
:102460008837064610E06A6A98FAA8F3B3FA83F34D
:1024700003F01F0322FA03F3D8077FF593AEFEF7AC
:102480008FFD801BB8428AD898FAA8F398FAA8F36F
:10249000002BE8D02A6AE7E793FAA3F3B3FA83F3B1
:1024A00000229B0003F1844303F584031A60FEF7C6
:1024B00077FD4FF00077064605E0FEF771FD801BC3
:1024C00002283FF66CAF97FAA7F32A6897FAA7F3AA
:1024D000B3FA83F303F01F0322FA03F3D907ECD412
:1024E000236AB3F5803F05D16A68A16822F40032FF
:1024F0000A436A60244D616A6A680B4322F47412CD
:1025000013436B604FF0807393FAA3F3B3FA83F332
:1025100001229B0003F1844303F584031A60FEF754
:102520003FFD4FF00074064605E0FEF739FD801BC5
:1025300002283FF634AF94FAA4F32A6894FAA4F37D
:10254000B3FA83F303F01F0322FA03F3DA07ECD59F
:102550005AE603F18043A3F53C331A6842F4802223
:102560001A601A6842F480321A608EE5064A136ACD
:1025700043F001031362AFE642F004021A621A6AE2
:1025800042F001021A62A7E60010024040F2012266
:1025900010B41E4B87B006ACADF804200FCB04E995
:1025A0000F001B4C616801F00C03082B03D0194885
:1025B00007B010BC70474FF4701393FAA3F3B3FA4B
:1025C00083F201F47013D34006AA134413F8100CDD
:1025D000CB0305D4104B03FB00F007B010BC7047D1
:1025E00063684FF4003292FAA2F2B2FA82F203F474
:1025F0000033D34006AA134413F8142C054BB3FB45
:10260000F2F300FB03F007B010BC7047408B0008EA
:102610000010024000127A0000093D00564A13687B
:1026200003F007038B420BD2136823F007030B431D
:102630001360136803F007038B4201D00120704739
:1026400003682DE9F0419C0706D54C4C856862680B
:1026500022F0F0022A4362600446D8070E4630D5C5
:102660006268012A00F08280022A0CBF4FF00073DA
:10267000022393FAA3F14149096893FAA3F3B3FA49
:1026800083F303F01F0321FA03F3D90729D53B4D48
:1026900041F288386B6823F0030313436B60FEF745
:1026A0007FFC63680746012B4FD0022B05D157E012
:1026B000FEF776FCC01B40455BD86B6813F00C0F2F
:1026C000F6D12D4A136803F00703B3420CD91368FF
:1026D00023F0070333431360136803F00703B34287
:1026E00002D00120BDE8F08123685A0706D52349AE
:1026F000E0684A6822F4E06202434A601B0707D59B
:102700001E4A2169536823F4605343EAC1035360AE
:10271000FFF73CFF194BF0225B6892FAA2F2B2FA83
:1027200082F2174903F0F003D340CB5C154A20FA3C
:1027300003F300201360FEF705FC0020BDE8F081E4
:10274000FEF72EFCC01B404513D86B6803F00C034A
:10275000042BF5D1B5E7FEF723FCC01B404508D894
:102760006B6803F00C03082BF5D1AAE74FF4003394
:102770007FE70320B6E700BF0020024000100240C0
:1027800000B40008A4040020014B1868704700BF83
:10279000A4040020084B4FF4E0625B6892FAA2F2B6
:1027A000B2FA82F20548064903F4E063D340C35C01
:1027B0000868D840704700BF0010024010B40008FD
:1027C000A4040020084B4FF460525B6892FAA2F216
:1027D000B2FA82F20548064903F46053D340C35C61
:1027E0000868D840704700BF0010024010B40008CD
:1027F000A40400202DE9F0410446006882B0C5071A
:1028000016D4830706D53F4AA168536823F4404392
:102810000B43536010F0100007D00020394AE168E4
:10282000536823F480030B43536002B0BDE8F0818A
:10283000344A354BD1691D4641F08051D161D2698E
:1028400002F080520192019A1A6842F480721A6072
:10285000FEF7A6FB064604E0FEF7A2FB801B6428F9
:102860002CD82B68D805F7D5264D61682A6A12F452
:1028700040721BD001F44073934217D0296A4FF481
:10288000803321F4407693FAA3F20127B2FA82F260
:102890001E4840F8227093FAA3F30022B3FA83F3A0
:1028A000C90740F823202E620CD46168154A136AC8
:1028B00023F440730B4313622068A2E7032002B0A5
:1028C000BDE8F081FEF76CFB4FF00208074641F2CD
:1028D00088360FE06A6A98FAA8F3B3FA83F303F034
:1028E0001F0322FA03F3DA07DFD4FEF759FBC01BFC
:1028F000B042E3D898FAA8F398FAA8F3002BE9D0ED
:102900002A6AE8E7001002400070004000044242DA
:102910002DE9F041174606460D461C46FEF740FBE2
:1029200080468FB9326801E0611C16D1936835EAA0
:102930000303F9D10020BDE8F081B4B1FEF730FB0C
:10294000A0EB0800A0420FD8326801E0631CF4D16C
:10295000936835EA0303F9D0ECE734B1FEF720FBC6
:10296000A0EB0800A042DDD932685368B16A23F0B9
:10297000E00353601368B1F5005F23F04003136078
:1029800007D1136823F400531360136843F4005312
:1029900013600122002386F8512086F8503003206E
:1029A000C9E700BFF0B590F8515083B0EDB2012DEA
:1029B00051D1002952D0002A50D090F85040012C1B
:1029C00049D000241226876A80F85160B7F5005F6D
:1029D00080F8505001638286C286C4644465846472
:1029E000C0E90E44066807D1346824F4005434600A
:1029F000346844F4005434608468B4F5004F03D163
:102A0000346844F4804434603468640603D4346821
:102A100044F0400434601D46C3680446406803BB6C
:102A2000002866D0012A0CD175E0236BE28E591C78
:102A300021631B782668013A92B2F360E286002A8D
:102A400061D02B46002202212046FFF761FF0028BB
:102A5000EBD0032000E0022003B0F0BD284603B015
:102A6000F0BD00282ED131F8023B013A92B2F3605A
:102A70002163E286002A33D1B7F5005F03D13368C2
:102A800043F4805333602B46002202212046FFF797
:102A90003FFF002839D12B46012280212046FFF735
:102AA00037FF002831D1A3682BB92368DA68019277
:102AB0009B680193019B0122002384F8512084F834
:102AC0005030C9E7012A0BD12BE0236BE28E33F89B
:102AD000021B2668013A92B2F1602363E28692B14A
:102AE0002B46002202212046FFF712FF0028ECD0DF
:102AF000AFE74B1C23630B78013A92B2F360E28696
:102B0000002A9ED1B8E7A76AB6E7636D032043F0B9
:102B100010036365A0E74A1C22630A78F260E3862B
:102B2000AAE7002331F8022BF2602163E386A3E7D2
:102B3000F0B5002483B0ADF8064090F85140012C68
:102B400003D090F85140222C72D1002973D0002A72
:102B500071D0002B6FD090F85040012C68D0012527
:102B600090F8514080F85050AC4204BF322480F8B5
:102B700051400024856A8263B5F5005F8387C3876F
:102B800001638386C3864465C0E91244026807D1A5
:102B9000146824F400541460146844F4005414605D
:102BA0001468640603D4146844F040041460C668D2
:102BB0000446B6F5006F406871D0002800F0A6808A
:102BC000B0F5827F61D1012B5FD10023481C2063C7
:102BD0000978D160E386B5F5005F00F0C480089BFA
:102BE000002201212046FFF793FE002855D12268DC
:102BF000A36BD2681A70E38F013BE387A36AB3F536
:102C0000005F00F0B580089B012280212046FFF77D
:102C10007FFE002840F0BC800123A26A84F8513076
:102C2000B2F5005F00F0D080002384F8503000E05F
:102C3000022003B0F0BD012003B0F0BD0121256BDF
:102C4000089B6E1826632F78E58E2668013DADB28D
:102C5000F76000222046E5863DB9A56AB5F5005F1C
:102C600003D1356845F480553560FFF751FEA0B9B2
:102C70002268A36BD268591CA1631A70E38FE28E9D
:102C8000013BE387002A00F08980089B0022022193
:102C90002046FFF73DFE0028D0D00320C9E70028DA
:102CA0003FD0B0F5827F28D1AFE0266BE58E36F8B5
:102CB00002CB2768013DADB2C7F80CC0089B0022CB
:102CC000012120462663E5863DB9A56AB5F5005F7A
:102CD00003D13D6845F480553D60FFF719FE00289B
:102CE000DBD12368A26BDB6822F8023BE38FE18E25
:102CF000013BA263E38700297BD0089B00220221CD
:102D00002046FFF705FE0028CFD0C6E7481C206309
:102D10000978013B9BB2D160E386002B3FF45BAFA7
:102D2000B3E731F8020B013B9BB2D0602163E3862D
:102D3000002BE2D1B5F5005F03D1136843F4805353
:102D40001360089B002201212046FFF7E1FD0028C7
:102D5000A3D12368A26BDB6822F8023BE38FA26356
:102D6000013BE3874AE7136843F48053136036E777
:102D7000089B002201212046FFF7CAFD00284ED102
:102D80002368DB689BB2ADF80630BDF806303AE741
:102D9000636D032043F0100363654AE76268002A0D
:102DA0007FF42CAF089B01212046FFF7B1FD0028DE
:102DB0007FF473AF2268A36BD268591CA1631A70A9
:102DC000E38F013BE38719E722689168C9067FF525
:102DD0002BAF616D41F002016165116821F4005172
:102DE0001160116841F40051116084F850001846D8
:102DF0001FE76268002A7FF401AF089B012120468B
:102E0000FFF786FD0028A4D047E7012B7FF475AFBC
:102E1000002331F8020BD0602163E3868AE7636DFB
:102E2000032043F00203636503E700BFF0B500240D
:102E300085B0ADF80E4090F85150EDB2012D55D14E
:102E4000002950D0002A4ED090F85060012E4DD06D
:102E50002226876880F85160B7F5004F80F85050FF
:102E600081638287C287C0E91244C0E90C4444658B
:102E700004D105682C6824F480442C60856AB5F57B
:102E8000005F08D10468266826F40056266026688C
:102E900046F4005626601E4643680446B3F5827F1A
:102EA00040D021680B68580603D40B6843F04003F8
:102EB0000B60E368F3B1012A0CD86BE02168A36BC7
:102EC000CA6823F8022BE28FA363013A92B2012A67
:102ED000E2875ED93346002201212046FFF718FD24
:102EE0000028EBD00325284605B0F0BD0225284672
:102EF00005B0F0BD012A0CD820E02268A36BD2688F
:102F0000591CA1631A70E28F013A92B2012AE2873A
:102F100013D93346002201212046FFF7F9FC00288F
:102F2000EBD0DFE7002FBCD180F85070134600963D
:102F30000A46FFF7FDFD0546D5E7A56AB5F5005F32
:102F400004D12268136843F480531360334600228F
:102F500001212046FFF7DCFC05460028C2D1E268CB
:102F60002168A36BF2B9CA68591CA1631A70E38F78
:102F7000A26A013BB2F5005FE38718D06368B3F53E
:102F8000827F27D0012384F85130002384F8503009
:102F9000A9E7A56AB5F5005FD8D10B6843F4805363
:102FA0000B60D3E7CA6823F8022BA363DFE733463D
:102FB000002201212046FFF7ABFC60BBD4E90031C1
:102FC000DB68B1F5827F9BB2ADF80E30A26ABDF826
:102FD0000E3006D1A368B3F5004F16D0B3F5806F5D
:102FE00013D00123B2F5005F84F85130CDD12368AE
:102FF0009B68DB06C9D5204600F066F8012810D092
:103000006FF0100223689A60BFE721680B6823F015
:1030100040030B60E5E7636D032543F0020363653E
:1030200061E70021626D236842F0020262651A685E
:10303000054622F400521A601A6842F400521A60DF
:1030400084F850104FE700BF002838D0F8B590F84A
:1030500051300446002B2FD0D4E901320225002044
:103060000121E66813432269334366691343E26929
:103070003343266A13433343A269A66A84F8515046
:103080002568334302F4007633432E68676A26F0DE
:103090004006120C2E6002F004022B60E36A3A43F1
:1030A0006A602B61EB69074A23F400631070EB61DF
:1030B000606584F85110F8BD03F054FBCCE70120A3
:1030C000704700BF980600200120704702684868DA
:1030D000936870B423F070030C68034323F0070374
:1030E00023435028936036D024D960280ED070280E
:1030F0000AD1D1E9024308699168234343EA0023D6
:1031000021F47F410B43936070BC7047106A8C6858
:1031100020F010000D6910629169136A21F470416A
:1031200023F0A00341EA053143EA0413916170BC26
:10313000136270474028E7D1146A106A0D6920F0C5
:1031400001001062936923F0F00343EA05139361D1
:10315000146270BC7047146A156A0E6925F0010587
:1031600088681562936924F00A0123F0F00343EAAA
:1031700006130143936170BC11627047704700BF32
:1031800003680C290CD8DFE801F0070B0B0B250BAB
:103190000B0B200B0B0B1B00DA6842F00202DA600B
:1031A0000122186A02FA01F120EA010018621A6A83
:1031B0000020114319621A6842F001021A60704738
:1031C000DA6842F01002DA60EAE7DA6842F00802F0
:1031D000DA60E5E7DA6842F00402DA60E0E700BFAF
:1031E00010B403680C290CD8DFE801F0070B0B0BB7
:1031F0002F0B0B0B2A0B0B0B2500DA6822F00202B7
:10320000DA60012041F211141A6A00FA01F122EA8F
:10321000010119621A6A1A621A6A224208D140F23E
:103220004442196A114203D11A6822F001021A605D
:10323000002010BC7047DA6822F01002DA60E0E784
:10324000DA6822F00802DA60DBE7DA6822F00402CA
:10325000DA60D6E790F83830012B67D00222F0B45C
:103260000125036880F839209A680C6822F47F42AF
:1032700022F07702402C80F838509A6000F093805A
:1032800018D9702C7FD02BD9B4F5805F76D0B4F5E7
:10329000005F1CD1D1E90152CC6899682A4342EA07
:1032A000042221F47F410A439A609A6842F48042E2
:1032B0009A600CE0102C42D02FD9202C38D0302C22
:1032C00005D19A6822F0700242F037029A6000231A
:1032D000F0BC012280F8383080F839201846704759
:1032E000502C33D0602CF2D11C6A4D6824F01004AD
:1032F000CE681C6299691A6A21F4704122F0A0021A
:1033000042EA051241EA063199611A629A6822F08E
:10331000700242F067029A60D9E7002CD7D19A6810
:1033200022F0700242F007029A60D0E70220704754
:103330009A6822F0700242F027029A60C7E79A6802
:1033400022F0700242F017029A60C0E71D6A1E6AFE
:103350004C6826F00106CF681E629A6925F00A01C2
:1033600022F0F00242EA071221439A6119629A6838
:1033700022F0700242F057029A60A8E79A6822F0A1
:1033800007029A60A3E7D1E90152CC6899682A4301
:1033900042EA042221F47F410A439A609A6842F08B
:1033A00077029A6093E71D6A1E6A4C6826F0010650
:1033B000CF681E629A6925F00A0122F0F00242EA03
:1033C000071221439A6119629A6822F0700242F052
:1033D00047029A607BE700BF38B590F83830012B80
:1033E00018D001250223044680F8385080F839307F
:1033F000FFF76CFE002123680846DA6822F04002DD
:10340000DA60DA6822F48042DA6084F8395084F8AD
:10341000381038BD022038BD90F838200346012A04
:1034200024D00C2920D8DFE801F00D1F1F1F131F27
:103430001F1F191F1F1F07000268106C002283F84E
:10344000382070470268506B002283F8382070479C
:103450000268906B002283F8382070470268D06BB6
:10346000002283F8382070470020E7E702207047E9
:10347000704700BF704700BF704700BF704700BF74
:10348000036810B51A690446910702D5DA689207F5
:103490005FD41A69500702D5DA68510746D41A6911
:1034A000120702D5DA6810072ED41A69D20602D59F
:1034B000DA68D00618D41A69D10702D5DA68D207BB
:1034C0005DD41A69100602D5DA6811065FD41A694C
:1034D000520602D5DA68500661D41A69910602D5FF
:1034E000DA68920643D410BD6FF01001082219610A
:1034F000DB69204613F4407F227664D000F042FB63
:10350000002223682276D6E76FF0080104221961B1
:10351000DB6920469907227652D1FFF7ABFF2046A0
:10352000FFF7AAFF002223682276BEE76FF00401AE
:10353000022219619B69204613F4407F22763CD118
:10354000FFF798FF2046FFF797FF002223682276B7
:10355000A5E76FF00201012219619B6902769B07C2
:1035600025D000F00FFB00222368227691E76FF050
:1035700020022046BDE810401A6100F073B96FF0D8
:10358000010220461A61FFF773FF236899E76FF085
:10359000800220461A6100F067F9236897E76FF010
:1035A000400220461A61FFF769FF236895E7FFF79D
:1035B00061FF2046FFF760FFD5E700F0E3FAC4E7BC
:1035C00000F0E0FAAEE7FFF755FF2046FFF754FFA3
:1035D00096E700BF30B4194D0368A8420C688A68AA
:1035E0001AD0B0F1804F0ED0A5F59435A8420AD07C
:1035F00005F58065A84206D003600123C26284629B
:10360000436130BC70474D6823F070032B43C96899
:1036100023F440730B43EFE74D6823F070032B4313
:10362000CD6823F440732B430360C26284620B694C
:1036300030BC036301234361704700BF002C01408D
:10364000B8B190F8393010B503F0FF0204465BB111
:103650000223206884F83930211DFFF7BBFF0123C6
:10366000002084F8393010BD80F8382003F0A8F825
:10367000EEE70120704700BFB8B190F8393010B5BF
:1036800003F0FF0204465BB10223206884F839305E
:10369000211DFFF79FFF0123002084F8393010BD62
:1036A00080F83820FFF76AFDEEE70120704700BF81
:1036B00070B4046A134E24F001040462B0428469B9
:1036C000056A0DD0B0F1804F0AD0A6F59436B0420D
:1036D00006D006F58066B04202D044F0010202E056
:1036E00024F0030422431B0125F00A04DBB222F07C
:1036F000F00201F00A0121431343836170BC0162AF
:10370000704700BF002C0140F8B590F83830012B0D
:1037100063D00D4602231646012280F8393080F826
:103720003820044606C90068EB6856B3042EAD681D
:1037300033D0082E066A52D026F480560662C66937
:10374000076A26F4407646EA02221B0309039BB26D
:1037500001F4204122F4704227F420461343314300
:10376000C3610162C36923F44063C361C36943EA6F
:103770000525C5610123002084F8393084F838001C
:10378000F8BDFFF795FF2368A868996921F00C013F
:1037900099619A6902439A61ECE7066A1B0326F075
:1037A000100606628669076A26F4407646EA022217
:1037B00009019BB201F0A00122F4704227F0A0069B
:1037C0001343314383610162836923F4406383615E
:1037D000836943EA05258561CCE70220F8BD26F41C
:1037E00080760662C669076A26F0030632431B012B
:1037F0000902DBB201F4206122F0F00227F4206616
:1038000013433143C3610162C36923F00C03C361F5
:10381000C3691D43C561ADE790F83830012B1ED058
:1038200002460220F0B400250126136882F8390010
:103830005C680F6824F070045C6058684C6838431A
:103840005860986820F08000986099682846214365
:10385000996082F8396082F83850F0BC70470220D5
:10386000704700BF704700BF704700BF2DE9F843A5
:1038700004460368C0681969A26821F440510143F5
:103880001961D968D4E9045021F4B0512A4321F0D8
:103890000C0102430A43DA605A69A0694D4922F4D7
:1038A000407202438B425A6155D0FEF773FF636842
:1038B00000EB800000EB80009B00B0FBF3F3464F71
:1038C0004FF06408A7FB03235B091D01FEF762FFAD
:1038D000666800EB800000EB8000B600B0FBF6F6F7
:1038E000FEF758FF626800EB8000930000EB800059
:1038F000B0FBF3F3A7FB03235B0908FB13631B0176
:103900003233A7FB03235B0903F0F006FEF742FF07
:10391000626800EB800000EB80009300B0FBF3F9DD
:10392000FEF738FF626800EB8000930000EB800038
:10393000B0FBF3F3A7FB03235B0908FB13931B0105
:103940003233A7FB0323C3F34313334322682B44CF
:103950009360BDE8F883FEF735FF636800EB8000F5
:1039600000EB80009B00B0FBF3F31B4F4FF06408AB
:10397000A7FB03235B091D01FEF724FF666800EB2C
:10398000800000EB8000B600B0FBF6F6FEF71AFFF1
:10399000626800EB8000930000EB8000B0FBF3F363
:1039A000A7FB03235B0908FB13631B013233A7FB4F
:1039B00003235B0903F0F006FEF704FF626800EBE7
:1039C0008000930000EB8000B0FBF3F9FEF7FAFEF5
:1039D000A8E700BF003801401F85EB51F8B5064647
:1039E0000D461446FDF7DCFA0746326801E0631C19
:1039F00005D1136835EA0303F9D10020F8BD2CB1D5
:103A0000FDF7CEFAC01B8442EFD2326801240021B8
:103A1000D368032023F08003D360D36823F020030E
:103A2000D360D36823F48073D360536923F0010318
:103A3000536186F8394086F83810F8BD50B338B570
:103A400090F83930044603F0FF02F3B102232268F4
:103A500084F83930D368204623F40053D360FFF74D
:103A600005FF01250021236808461A6922F49042C7
:103A70001A615A6922F02A025A61DA6842F4005245
:103A8000DA60E16384F8395038BD80F8382002F0FC
:103A9000EFFEDBE70120704770B5044690F839006F
:103AA0000D46C1B201291E4601D022294AD1002D5E
:103AB0004AD0002A48D094F83830012B42D0002355
:103AC000E36394F839300121222B0CBF32231223F7
:103AD00084F8381084F83930A28409E0FFF77EFFBB
:103AE000002835D12A78236801355A60E28CBAB1B2
:103AF000A368013AB3F5805FE2844FF0800132465B
:103B00002046EBD1FFF76AFF10BB2B8821682269A2
:103B1000C3F308034B60CAB9E28C0235002AE7D12F
:103B2000324640212046FFF759FF88B994F83930D2
:103B3000322B0CBF2223012384F83930002384F870
:103B4000383070BD022070BD012070BD0135CDE759
:103B5000032070BD08B548B901460948FFF740FB8E
:103B6000BDE8084004210648FFF73ABB002104489D
:103B7000FFF706FBBDE8084004210148FFF700BB42
:103B80005C1500201F4A0168914200D07047037EF7
:103B900010B5012B1BD0022B00D010BD0421FFF764
:103BA0003BFC194A0124538880B201339BB2B3F520
:103BB000007F22BF00210B465180108038BF538008
:103BC000124A02EB830122F823008C7010BD002101
:103BD000FFF722FC0C4900244B880A8801339BB272
:103BE000B3F5007FA0EB020022BF002213464A80FB
:103BF000064A38BF4B8080B202EB830122F82300D3
:103C00008C7010BD000800409A060020040B0020B4
:103C1000044B58889B88984238BF00F50070C01A42
:103C200080B270479A0600200A4A82B09388013316
:103C30009BB2B3F5007F25BF00210B469380918096
:103C4000054A02EB8303186883B263F30F0002B0E6
:103C5000704700BF9A060020040B00202DE93008B1
:103C6000D0E90823002512EB020BCCB243EB030C86
:103C700090F830104CEA05034BEA0402C0E908232F
:103C8000BDE830084B1C80F83030704702462021D8
:103C90000148FDF775BE00BF000C0140024610212F
:103CA0000148FDF76DBE00BF000C014070B5044631
:103CB0000D4688B00020164602F054FA00F0BAFC17
:103CC00023462A4A182102A803F02CFB0F210A20C0
:103CD00002F078FA0122264902A802F0BDFA0F216B
:103CE000502002F06FFA94F83030224A182102A8CE
:103CF00003F018FB01221E4902A802F0ADFAD4E934
:103D000008231821CDE9002302A81B4A03F00AFB6F
:103D10001A210A2002F056FA02A80122144902F0E0
:103D20009BFA05B9EEB13346144A182102A803F0F4
:103D3000F9FA25210A2002F045FA01220C4902A8CD
:103D400002F08AFA0E4A2B46182102A803F0EAFA7A
:103D500030210A2002F036FA02A80122044902F0BA
:103D60007BFA02F077F808B070BD00BF30B40008ED
:103D70009C04002034B400083CB4000844B400089B
:103D800050B4000810B50F4C90F8302084B00346B2
:103D900000F12001D1E900010092CDE902010A4AB7
:103DA0006421204603F0BEFA2046FCF7EBFD2146D5
:103DB0004FF47A7382B2054804B0BDE81040FFF7B3
:103DC0006BBE00BF781600205CB40008DC16002033
:103DD000008B0B1A9A4205DB08448242CCBF0020BC
:103DE000012070470020704770B4074C30212346F3
:103DF0007825064A84F8311007CA03C3044E1A8096
:103E00006661258370BC70470813002088B40008E1
:103E1000E803580200232DE9F04F83B04FF000096A
:103E2000C3F1200C20FA03F4A3F1200201FA0CFCE8
:103E300044EA0C0421FA02F21AEB0A0644EA0204EC
:103E400003F101034BEB0B0704F00108402B46EA9A
:103E5000080A47EA090BE1D10F4C5A462046514661
:103E6000FFF724FF5B460D4A6421CDF800A00C4803
:103E700003F058FA0A48FCF785FD4FF47A7382B2D2
:103E800007490848FFF708FE00220023C4E90A2377
:103E900003B0BDE8F08F00BF0813002094B4000801
:103EA00078160020DC160020F0B55A4C83B094F848
:103EB00032300190032B23D8DFE803F00261312474
:103EC0009DF80650EDB2012D22D1E18ABDF8042003
:103ED000890089B24F48FFF77BFF94F836300028FD
:103EE00040F09180022B0BD9002600270322BDF859
:103EF0000430C4E9086784F8300084F83220A386CF
:103F000003B0F0BD9DF8063003F0FF05002B47D04D
:103F1000002384F8323084F8363003B0F0BD9DF8C9
:103F20000630012BECD1A38A218BBDF804200B4471
:103F3000934261DA002594F8302094F8313084F807
:103F400032509A42DCD3D4E90867D4E90A23BB4251
:103F500008BFB242D4D02F48C4E90A67FFF712FF66
:103F6000D4E90801FFF756FF0022002384F83050FF
:103F700084F8365084F83250C4E90823C0E79DF82D
:103F8000063003F0FF05002BC2D1BDF80420A18A42
:103F90002048FFF71DFF0028BAD084F83250AFE761
:103FA000A28EE18A1B48FFF713FF70B1BDF8042011
:103FB000E18A1848FFF70CFF38B129461548FFF78A
:103FC0004DFE022384F832309AE7A28EA18A11486E
:103FD000FFF7FEFE00289BD0BDF80420A18A0D4803
:103FE000FFF7F6FE002893D001210A48FFF736FEBE
:103FF000022384F8323083E70322BDF8043084F8CA
:104000003220A3867CE7013384F8325084F83630BE
:1040100076E700BF0813002010B5054B054CC3E937
:1040200000012280FFF710F8B0FA80F0400910BDBF
:10403000A00600204013002070B50C4C82B00C4E3E
:1040400002AD05F8010D318860680022FDF798FC8B
:104050002946642320680122FEF7A4FC31886068A9
:104060000122FDF78DFC02B070BD00BFA00600204C
:104070004013002070B5114C84B0114E04AD60F0B7
:104080007F0005F8090D318860680022FDF778FC93
:104090002946206864230122FEF784FC64230DF185
:1040A0000F0120680122FEF7C1FE606831880122FD
:1040B000FDF766FC9DF80F0004B070BDA00600205F
:1040C0004013002038B50D20FFF7D4FF05460E2021
:1040D000FFF7D0FF04020F20FFF7CCFF44EA0544AE
:1040E0002043FCF7A7FA0549FCF7FCFA4FF05E51B4
:1040F000FCF7F8FA0249FCF7A9FB38BD405DC64B56
:104100000024744970B506462820FCF74FFF36207E
:10411000FFF792FF2820FCF749FF3020FFF78CFFC4
:104120006420FCF743FF174D3620174CFFF784FF40
:104130000A20FCF73BFF298860680022FDF720FC7D
:10414000012E17D0022E05D164234A220F49206880
:10415000FEF728FC298860680122FDF711FC0A207F
:10416000FCF724FF3620FFF767FFBDE870406420AE
:10417000FCF71CBF6423482205492068FEF712FCA7
:10418000E8E700BF40130020A0060020988B00083D
:10419000508B0008014B1870704700BF00000020D2
:1041A00008B501211748FDF7E5FB08B1012008BD5E
:1041B00000F18040082100F58430FDF7DBFBD8B921
:1041C00000F18040042100F58430FDF7D3FBA8B94D
:1041D00000F18040022100F58430FDF7CBFB78B977
:1041E00000F18040102100F58430FDF7C3FB00286A
:1041F00014BF0520002008BD022008BD032008BD13
:10420000042008BD00080140F0B5044689B00A202A
:10421000FCF7CCFE601E042800F29B80DFE800F073
:104220004575638703005A4C2278013AD2B2FA2AC4
:1042300040F2898007236FF070401C212370554D98
:104240002B6823FA01F202F00F02627002FA01F108
:10425000034019430B46504A296002A8182103F075
:1042600061F822210F2001F0ADFF01224B4902A885
:1042700001F0F2FF2C230022194600921E206A2230
:1042800002F000F801222C2320780092A0EBC0005D
:1042900080B200F16A02633092B280B2194601F036
:1042A000F1FF01F0D7FD09B0F0BD02233C4C3D4DBC
:1042B000637000F02FFC0022354B29781A705A7079
:1042C0009A700029EFD02023324A106830FA03F6A2
:1042D000DAB24DD1043BF9D101294CD0022950D09A
:1042E00001236370DFE70F27294C2A4D6278267877
:1042F000013AD2B2B60007FA06F1FA2A62706FEA02
:1043000001002B6831D96770A2E70F23204C214DA3
:1043100062782678511CCAB2B600B3400F2A6FEA01
:10432000030062702B6820D90021617090E7184C5F
:1043300022780132D2B2072A05D900236FF00F008C
:10434000194623707BE70F2391008B402270D843DE
:1043500075E70F230E4C0F4D2178627889008B4052
:10436000D84302FA01F12B6872E702FA06F16FE70F
:1043700004322A72B0E76B7A2A7A002100F0CCFE70
:10438000AEE76B7A2A7A002101F06AFCA8E700BF49
:1043900044130020AC060020C8B400089C04002090
:1043A000000000208813002008B5FFF7F9FE104B2D
:1043B0005B78022B14D0032B06D0012B00D008BD54
:1043C000BDE80840FFF720BF04280DD00528F6D12E
:1043D000084A937A092B94BF0A230133937208BDCC
:1043E000BDE8084000F05EBB0222024B9A7208BD95
:1043F0000000002088130020012210B5174B88B060
:1044000000205A7001F0AEFE00211E2001F0DAFEFD
:10441000134B1B78012B19D0022B02AB10D018467E
:104420000122104901F018FF0A23012219460092C7
:104430000020802201F026FF01F00CFD08B010BD25
:104440001C46094A07CA03C42280E8E702AB1C469F
:10445000064A07CA03C42280E1E700BF000000202B
:10446000881300209C040020E0B40008D4B40008A5
:1044700003232DE9F047674F88B004207B7000F0DC
:1044800071FA3520FFF7D8FD002001F06BFE002106
:104490001E2001F097FE01225F49604801F0DCFE1A
:1044A0004FF001080A23802219460020CDF8008031
:1044B0005B4E01F0E7FE02AC3421002001F082FEE9
:1044C0000FCE0FC43368574D24F8023B1B0C4246F5
:1044D00002A85149237001F0BFFE287A800847D016
:1044E00000231A460133D9B21401884244F00F0266
:1044F000F8D824F07F44484EDFF82C91DFF82C8167
:1045000044F00F04AB7A013B0B2B2AD8DFE803F011
:104510003A2E292929292929294D4B064FF0010A2C
:104520003421002085F80AA001F04CFEDFF8F0E00D
:104530000DF1080CBEE80F00ACE80F005246DEF8A3
:10454000003005342CF8023B31461B0C02A88CF8D5
:10455000003001F081FE01F07DFC4FF4FA70FCF7B1
:1045600025FDFFF721FF013CCCD101E0FFF71CFF47
:10457000032000F0F7F902237B7000F0CBFA08B0BB
:10458000BDE8F0872B78012B21D0022B30D02221DF
:10459000002001F017FE0122314602A801F05CFE66
:1045A00001F058FCDDE70134DBE70B233421002068
:1045B000AB7201F007FEDFF878E00DF1080CBEE801
:1045C0000F00ACE80F00DEF800300122BAE76B7A8A
:1045D0002A7A2046002100F09FFD6A7A2B7A182162
:1045E000CDE9003202A82346424602F09BFECEE708
:1045F0006B7A2A7A2046002101F032FB6A7A2B7A04
:104600001821CDE9003202A823464A4602F08AFE6C
:10461000BDE700BF000000209C040020ECB40008AF
:10462000F8B40008881300201CB500080CB5000879
:104630002CB50008F0B50A23012483B01946802266
:104640000020009401F01EFE0823122200216920A0
:10465000009401F0CBFE2346022204217C2001F0CD
:104660002BFF00257A22062310460221009501F037
:1046700009FE0423032202216B20009401F0F0FEC6
:10468000624E0423032202217020009401F0E8FE10
:104690000423009403220221752001F0E1FE337807
:1046A00023B903B0BDE8F04001F0D4BB0623214696
:1046B0001A460420009401F099FE05222346104674
:1046C0002946009401F0DEFD0922234610462946C2
:1046D000009401F0D7FD22460321062001F04EFD93
:1046E00022460321082001F049FD03230422194634
:1046F0000220009401F0C6FD062304221946022080
:10470000009401F0BFFD03230C2219460A200094F7
:1047100001F0B8FD06230C2219460A20009401F08E
:10472000B1FD2946284601F04DFDFFF7CBFCFBF714
:1047300073FE374ACDE900014021364802F0F2FD10
:1047400022463549334801F087FD3778A7422DD0FE
:1047500002212A46084601F011FD2A4605210220C1
:1047600001F00CFD2A4604210C2001F007FD2A4629
:1047700007210C2001F002FD22460421022001F055
:10478000FDFC22460721022001F0F8FC224602210E
:104790000C2001F0F3FC224605210C2001F0EEFC78
:1047A000347003B0BDE8F04001F054BB2A46042148
:1047B000022001F0E3FC2A460721022001F0DEFC82
:1047C0002A4602210C2001F0D9FC2A4605210C20A2
:1047D00001F0D4FC02213A46084601F0CFFC3A46EB
:1047E0000521022001F0CAFC3A4604210C2001F008
:1047F000C5FC3A4607210C2001F0C0FC02233370AF
:1048000003B0BDE8F04001F025BB00BF0000002070
:1048100040B50008481300209C04002030B500205B
:104820008BB001F09FFCFFF705FF0021322001F063
:10483000C9FC01224549464801F00EFD0A23012228
:10484000444D009219468022002001F01BFD424C8D
:104850002B68A34207D05B68A34204D05B68A342E5
:1048600001D0113301E004F128033C4A192103A8C7
:1048700002F058FD0C21282001F0A4FC03A801221D
:10488000324901F0E9FC2B68A3425CD05B68A3428B
:1048900059D01133314A192103A802F043FD1621E2
:1048A000282001F08FFC0122284903A801F0D4FC44
:1048B0002B682B4AA34214BF113304F1280319219A
:1048C00003A802F02FFD20211A2001F07BFC012219
:1048D0001E4903A801F0C0FC2B68A34230D01B681E
:1048E000A3422DD011331D4A192103A802F01AFD4D
:1048F0002A21282001F066FC0122144903A801F0B6
:10490000ABFC2B68A34218D01B68A34215D01B68D0
:10491000A34212D01133114A192103A802F002FD5B
:104920003421282001F04EFC0122084903A801F09F
:1049300093FC01F08FFA0BB030BD04F12803EAE7D5
:1049400004F12803CFE704F12803A3E79C04002027
:1049500048B50008E4130020B406002050B5000854
:1049600054B50008023808B5182818D8DFE800F058
:10497000877D73171717675D1755514D49454136A8
:104980002D2925211D190D596900022040F21C41D5
:104990000122414B19819A721870FFF769FD0120BD
:1049A00008BD02204FF48361F2E7022040F2144177
:1049B000EEE702204FF48261EAE7022040F20C4168
:1049C000E6E702204FF48161E2E701220421324B45
:1049D0001A709A725972FFF70FFDE0E701224FF447
:1049E00084612D4B9A7219811A70FFF741FD0120E5
:1049F00008BD012240F21C41F3E701224FF483611C
:104A0000EFE7012240F21441EBE701224FF482610B
:104A1000E7E7012240F20C41E3E701224FF4816114
:104A2000DFE702204FF48461B2E70220FFF76AFB60
:104A30003420FFF701FB0120FFF7ACFBAFE70120BB
:104A4000F4E7022004210122134B187059729A7264
:104A5000FFF7D2FCA3E70020FFF77CF83620FFF732
:104A6000EBFA0020FFF796FB99E70120FFF772F8B9
:104A70003420FFF7E1FA0120FFF78CFB8FE7BFF34B
:104A80004F8F0649064BCA6802F4E0621343CB60BD
:104A9000BFF34F8F00BFFDE78813002000ED00E05B
:104AA0000400FA05013804280DD8DFE800F00317E8
:104AB0001E250E00154A1368187C20BBDB681449BC
:104AC0008B4200D01360FFF7A9BE104B10491A6843
:104AD000D2688A42F7D01A60FFF7A0BE0B4B0C4990
:104AE0001A6852688A42F6D1EDE7084B08491A68FD
:104AF00012688A42EFD1E6E7044B05491A689268CA
:104B00008A42E8D1DFE7FFF72DBF00BFE4130020A2
:104B1000B406002008B5034A034B1A60FFF77EFE77
:104B2000012008BD04000020E4130020014B024ACC
:104B30001A607047E41300200400002070B4074C92
:104B40000C2123463225064A84F8311007CA03C3D4
:104B5000044E1A806661258370BC7047E8130020FC
:104B60005CB50008C201960030B5484C83B094F89B
:104B700032300190012B48D02BD3022B27D19DF846
:104B8000063003F0FF05002B3AD1E18A238B01EBBD
:104B90008100BDF8042003EB400393424ADC01216D
:104BA00094F8302094F8313084F832109A4207D3C8
:104BB0002046FFF7E7F82A4629462046FFF776F811
:104BC000002000210023C4E9080184F8303003B03C
:104BD00030BD9DF8063003F0FF008BB9E38A218BCE
:104BE000C3EBC30203EB8203BDF804505B1AAB4274
:104BF00006DCC2EBC202BDF804300A449A420FDA66
:104C0000002384F8323003B030BD9DF80630012B0C
:104C1000DDD10222BDF8043084F83220A386D6E725
:104C200001210022002384F8300084F83210C4E906
:104C30000823CCE7A28E2046FFF7CAF830B1BDF8B2
:104C40000420A18A2046FFF7C3F8B0B9A28EA18A3A
:104C50000E48FFF7BDF80028D2D0BDF80420E18A45
:104C60000A48FFF7B5F80028CAD001210748FEF727
:104C7000F5FF012384F83230A9E729462046FEF7E4
:104C8000EDFF012384F83230A1E700BFE8130020D4
:104C9000F0B5094E4FF00C0E3446C827074DDFF82B
:104CA00020C00FCD0FC42B6886F831E02370C6F802
:104CB00014C03783F0BD00BF2014002068B5000881
:104CC0004605C20130B5484C83B094F832300190AB
:104CD000012B48D02BD3022B27D19DF8063003F0AF
:104CE000FF05002B3AD1E18A238B01EB8100BDF84F
:104CF000042003EB400393424ADC012194F8302066
:104D000094F8313084F832109A4207D32046FFF7E6
:104D100039F82A4629462046FEF7C8FF0020002120
:104D20000023C4E9080184F8303003B030BD9DF899
:104D3000063003F0FF008BB9E38A218BC3EBC3027B
:104D400003EB8203BDF804505B1AAB4206DCC2EBF6
:104D5000C202BDF804300A449A420FDA002384F8F4
:104D6000323003B030BD9DF80630012BDDD1022278
:104D7000BDF8043084F83220A386D6E70121002252
:104D8000002384F8300084F83210C4E90823CCE70B
:104D9000A28E2046FFF71CF830B1BDF80420A18A8E
:104DA0002046FFF715F8B0B9A28EA18A0E48FFF78A
:104DB0000FF80028D2D0BDF80420E18A0A48FFF796
:104DC00007F80028CAD001210748FEF747FF012352
:104DD00084F83230A9E729462046FEF73FFF012339
:104DE00084F83230A1E700BF2014002070B4074CD3
:104DF000402123467825064A84F8311007CA03C3A8
:104E0000044E1A706661258370BC704758140020E8
:104E10007CB50008F401FA0000232DE9F04F83B0BF
:104E20004FF00009C3F1200C20FA03F4A3F1200293
:104E300001FA0CFC44EA0C0421FA02F21AEB0A060D
:104E400044EA020403F101034BEB0B0704F00108F1
:104E5000402B46EA080A47EA090BE1D10F4C5A46B3
:104E600020465146FEF722FF5B460D4A6421CDF8ED
:104E700000A00C4802F056FA0A48FBF783FD4FF4F5
:104E80007A7382B207490848FEF706FE0022002323
:104E9000C4E90A2303B0BDE8F08F00BF5814002016
:104EA00094B4000878160020DC160020F0B55F4CA2
:104EB00083B094F832300190032B2BD8DFE803F055
:104EC000665A2C029DF80630002B58D1A28EE18A3A
:104ED0005648FEF77DFF002840F08C80A28EA18A04
:104EE0005248FEF775FF002849D0BDF80420A18A7A
:104EF0004E48FEF76DFF002841D094F8302094F81A
:104F000031309A4203D200214848FEF7A7FE02231F
:104F100084F8323003B0F0BD9DF80630012BF9D192
:104F2000A38A218BBDF804200B4493425BDA002551
:104F300094F8303084F83250002BEBD0D4E9086775
:104F4000D4E90A23BB4208BFB242E3D03748C4E9E0
:104F50000A67FEF717FFD4E90801FFF75DFF00229B
:104F6000002384F8305084F8365084F83250C4E975
:104F70000823CFE79DF8063003F0FF0533B3002385
:104F800084F8323084F8363003B0F0BD9DF8065016
:104F9000EDB2012DF3D1A18ABDF80420490089B2F8
:104FA0002248FEF715FF94F83630002837D1042B3D
:104FB000B0D9002600270322BDF8043084F8300061
:104FC000C4E9086784F83220A386A3E7A18ABDF864
:104FD0000420490089B21548FEF7FAFE0028CED019
:104FE00084F8325096E70322BDF8043084F832206A
:104FF000A3868FE7BDF80420E18A0C48FEF7E8FE9F
:1050000000283FF46BAF94F8302094F831309A4286
:10501000BFF47DAF01210548FEF720FE77E701339D
:1050200084F8325084F8363074E700BF58140020FA
:10503000F8B5134F134C0020FEF728FEBD8A6668B2
:10504000FDF7A2FB104BA3FB0030800C05FB00F525
:1050500063689B1BAB42FBD30120FEF717FEFD8A62
:105060006468FDF791FB084B064AA3FB0030800CF7
:1050700005FB00F553681B1BAB42FBD3F8BD00BF1B
:1050800090140020001000E083DE1B4370B408265B
:105090006424064B064A074D92E8030083F831600A
:1050A000186019715D611C8370BC704790140020FA
:1050B00088B500088002400128BBF8B5134F144C96
:1050C000FEF7E4FDFD8A6668FDF75EFB114BA3FB6E
:1050D0000030800C05FB00F563689B1BAB42FBD3E3
:1050E0000120FEF7D3FDBD8A6468FDF74DFB094B37
:1050F000074AA3FB0030800C05FB00F553681B1B1F
:10510000AB42FBD3F8BDFFF793BF00BF9014002064
:10511000001000E083DE1B432DE9F84F1F46013FDE
:105120008046FFB201200C469146FEF7B7FDFF2FE7
:10513000DFF88CB0204E39D0FFF77AFFB9F1000FBD
:105140001AD009F1FF3A5FFA8AF2A9F10205AD1A05
:10515000CAF1200104FA01F128FA0AF0AAF12002AA
:10516000084324FA02F2104300F001000AF1FF3A6A
:10517000FFF7A2FFAA45EBD10020FEF787FDBBF8A1
:105180001620756802EB02124FEA420AFDF7FCFA9C
:105190000A4BA3FB0030800C0AFB00F273685B1B18
:1051A0009342FBD3013FFFB2FF2FC5D1BDE8F84FBB
:1051B0000020FEF773BD00BF001000E083DE1B433C
:1051C0009014002030B5504C83B094F832300190E8
:1051D000032B2BD8DFE803F0694E2C029DF8063034
:1051E000012B7DD1A28EE18A4748FEF7F1FD38B14F
:1051F000BDF80420A18A4448FEF7EAFD00287BD1CF
:10520000A28EA18A4048FEF7E3FD002868D0BDF8D1
:105210000420E18A3C48FEF7DBFD002860D0012134
:105220003948FEF71BFD022384F8323003B030BD4D
:105230009DF8063003F0FF05002B51D1E18A238B46
:10524000BDF8042003EB410393424EDC012194F8A6
:10525000302094F8313084F832109A42E6D32A484C
:10526000FEF790FD2A462946274803B0BDE83040A6
:10527000FEF71CBD9DF80630002BD7D0E38A228BA9
:10528000BDF80410981A88422ADCBDF804101344B3
:105290008B4225DB022200200021002384F83220EB
:1052A000C4E9080184F83030C0E79DF80630BBB986
:1052B000E28A218B02EB8203C3EBC303BDF8040037
:1052C0005B1A83420CDCC2EBC203C2EBC302BDF823
:1052D00004300A449A4203DB012384F83230A5E704
:1052E000002384F8323003B030BD0322BDF804300F
:1052F00084F83220A38699E700210348FEF7AEFC2C
:10530000022384F8323091E79014002000200D4AE7
:105310000D4BD16821F08071D160D16841F080716E
:10532000D1601A6822F001021A601A6842F0010284
:105330001A60586000BF00BF00BF5868B0FA80F024
:1053400040097047F0ED00E0001000E070B4402626
:105350008C24074A074B92E80300074D0A0C83F898
:105360003160186099809A715D611C8370BC7047D0
:1053700090B50008C81400202003900100232DE9F7
:10538000F04F83B04FF00009C3F1200C20FA03F472
:10539000A3F1200201FA0CFC44EA0C0421FA02F207
:1053A0001AEB0A0644EA020403F101034BEB0B0774
:1053B00004F00108402B46EA080A47EA090BE1D14C
:1053C0005A4651460B48FEF771FC5B460A4A642177
:1053D000CDF800A0094801F0A5FF0848FBF7D2FA74
:1053E0004FF47A7382B20549054803B0BDE8F04F27
:1053F000FEF752BBC814002094B4000878160020B1
:10540000DC160020F0B5644C83B094F83230019083
:10541000032B20D8DFE803F07B5A4F21A28E5E4891
:10542000FEF7D6FC002800F09B80BDF80420A18A7E
:105430005948FEF7CDFC002800F0928094F8302007
:1054400094F831309A4203D201215348FEF706FC0A
:10545000022384F8323003B0F0BD9DF8063003F02B
:10546000FF05002B5DD1E18A238BBDF8042003EBFF
:1054700041039342D2DC94F8303084F83250002B50
:10548000E9D0D4E90867D4E90A23BB4208BFB24295
:10549000E1D04148C4E90A67FEF774FCD4E9080189
:1054A000FFF76CFF002000213C4B84F83050C4E92A
:1054B00008011D70CFE79DF80630012BCBD10322E8
:1054C000BDF8043084F83220A386C4E79DF8063086
:1054D00073B3324A1378022B24D9E38ABDF804103F
:1054E00003EBC30088421DDC03EB8300BDF804100E
:1054F00003EB40038B4215DB022200200021002336
:1055000084F83220C4E9080184F83030A3E79DF81C
:105510000650EDB2012D14D0002384F8323003B0D0
:10552000F0BD1E4A002384F83230137003B0F0BD82
:10553000BDF80420E18A1848FEF74AFC0028C8D0CC
:10554000EAE7BDF80420E18A1348FEF741FC002891
:10555000E2D0124A84F832501378013313707AE79C
:10556000A28EA18A0C48FEF733FC0028D9D0BDF8E2
:105570000420E18A0848FEF72BFC0028D1D094F8DB
:10558000302094F831309A42BFF462AF00210248D3
:10559000FEF764FB5CE700BFC8140020DD060020B6
:1055A00010B5FBF7FDFC0A4C2368C3F1010303446B
:1055B000B3F5FA7F00D810BDFBF7F2FC4FF40051B1
:1055C00020600448FCF7E0F9BDE81040FFF732B86E
:1055D000E00600200010014030B501224FF4803376
:1055E000002502244FF4E01195B00AA80A920E9209
:1055F0000B9312930C9511941391FCF71DFD00B1C0
:10560000FEE703460F254FF48062214605A8CDE949
:105610000643099305950892FDF700F800B1FEE7EF
:105620004FF4004301A801940393FDF7E3F8044607
:1056300000B1FEE7FDF7A8F84FF47A73B0FBF3F082
:10564000FBF7CCFE0420FBF7E1FE224621464FF09B
:10565000FF30FBF781FE15B030BD00BF80B5AD4C0B
:1056600096B002250127FBF781FCFFF7B5FFA36980
:10567000002243F01003A361A3694FF4005103F02B
:1056800010030393039BA369A34843F02003A36182
:10569000A369A24E03F020030493049BA36943F083
:1056A0000403A361A36903F004030593059BA369A5
:1056B00043F00803A361A36903F008030693069B64
:1056C000FCF75EF93A4629469548FCF759F900225D
:1056D00041F230019248FCF753F900224FF40041A7
:1056E0009048FCF74DF94FF4005311A98A48CDE9D1
:1056F00011371495FCF74EF81F228B4B11A98948DE
:10570000CDE911231395FCF745F8112311A984481D
:10571000129311951495FCF73DF841F2300311A94D
:105720007F48119312971495FCF734F84FF4004317
:1057300011A97C48119312971495FCF72BF80022BD
:105740000A210620FBF708FE0620FBF73BFE00229D
:105750000A210720FBF700FE0720FBF733FE00229B
:105760000A210820FBF7F8FD0820FBF72BFE00229A
:105770000A210920FBF7F0FD0920FBF723FE0A218F
:1057800000220846FBF7E8FD0A20FBF71BFE00227B
:10579000636911463B436361636910203B40029398
:1057A000029BFBF7D9FD1020FBF70CFE00224FF403
:1057B00080415E4B5E4C1846C3E90222C3E90522D4
:1057C000C3E90722C3E900641961FCF7D3F900B10A
:1057D000FEE747214FF6FF73564C574AC4E90110C4
:1057E000206120462260E360FDF72AFF00B1FEE75A
:1057F0004FF4805316AE46F8343D31462046FDF74F
:1058000029FD00B1FEE72046FDF736FF00B1FEE7B7
:105810004FF0040850231390159011A92046CDE9AC
:105820001183FDF7D9FD00B1FEE78023079007A99A
:1058300020460893FDF7F0FF034600B1FEE702465D
:105840000DA92046CDE90D37CDE90F33FDF75CFFFB
:1058500000B1FEE7424620460DA9CDE90D55FDF702
:1058600053FF00B1FEE74FF4E1340C22334B3449CF
:10587000C3E90140C3E90300C3E9060018465A61C1
:105880001960FEF7DBF8024600B1FEE74FF4602036
:105890002C4B2D49D8611846C3E902275A615A603A
:1058A0001F611960FBF78CFC00B1FEE707220125A0
:1058B000002311A923481192CDE91253FBF784FB71
:1058C00000B1FEE74FF482714FF400740A220827FA
:1058D0001E4BC3E901101E49C3E903005861C3E927
:1058E0000800986218469C611960DA62DF61FDF772
:1058F000ABFB00B1FEE747214FF6FF73154C164A8C
:10590000C4E90110206120462260E360FDF798FEA3
:1059100020B3FEE700100240001001400054004098
:10592000000C01400008014000001110D0150020BB
:10593000801A06005C15002000080040DC160020DC
:1059400000380140481600200024014004150020C2
:10595000003800400C160020000400404FF4805333
:10596000314620460993FDF775FC00B1FEE720465D
:10597000FDF782FE00B1FEE7042650231390159038
:1059800011A92046CDE91163FDF726FD00B1FEE720
:105990008023079007A920460893FDF73DFF0346A3
:1059A00000B1FEE702460DA92046CDE90D35CDE94F
:1059B0000F33FDF7A9FE00B1FEE7022332460DA921
:1059C0002046CDE90D33FDF79FFE034600B1FEE70B
:1059D0003A4620460DA9CDE90D35FDF795FE00B1FB
:1059E000FEE702230DA90C225548CDE90D33FDF742
:1059F0008BFE044600B1FEE70120FEF7ABF84FF442
:105A0000805250495048FEF707FB0120FEF77AFB11
:105A10004E4800F035FA002843D02146282000F0F7
:105A2000D1FB4B4B4B4A186840210D905D684A48AA
:105A30000E959B680F930F9B01F074FC0122474960
:105A4000454800F009FC1221142000F0BBFB0122A4
:105A50004249434800F000FC3421204600F0B2FBEC
:105A6000FEF730FBFAF7D8FC3E4ACDE900014021B1
:105A7000394801F057FC01223849374800F0ECFB67
:105A80003421462000F09EFB01223449364800F0C4
:105A9000E3FB00F0DFF94FF47A70FBF787FAFFF7CA
:105AA00045F8FFF733FC00B1FEE7FFF7EFFA00F02F
:105AB00091F8FFF743F8FFF7EBF8FFF747FCFFF724
:105AC00095F9FEF791F9224B284E1A68224C119253
:105AD0005A68224D12929B681393139BFEF798F815
