:020000040800F2
:100000002818002001010008D3450008AD3C000875
:10001000D14500087513000847570008000000008C
:10002000000000000000000000000000E14E000899
:100030003D16000800000000F54500083D5200088C
:100040001B0100081B0100081B0100081B01000820
:100050001B0100081B0100083F1600084516000898
:100060004B16000851160008571600081B0100081F
:100070001B0100081B0100081B0100081B010008F0
:10008000751500081B0100081B0100081B01000872
:100090001B0100081B0100081B0100081B010008D0
:1000A0001B0100081B0100081B0100081B010008C0
:1000B0001B0100080D530008195300081B0100081C
:1000C0001B0100081B0100081B0100081B010008A0
:1000D0001B0100081B0100081B0100081B01000890
:1000E0001B0100081B0100081B010008DFF80CD0F1
:1000F00000F00CFB00480047C561000828180020EC
:100100000648804706480047FEE7FEE7FEE7FEE7B1
:10011000FEE7FEE7FEE7FEE7FEE7FEE7C552000862
:10012000ED000008202A04DB203A21FA02F0002129
:10013000704721FA02F3D040C2F1200291400843F7
:1001400019467047D2B201E000F8012B491EFBD2DC
:1001500070470022F6E710B513460A4604461946D2
:10016000FFF7F0FF204610BD421C10F8011B0029CC
:10017000FBD1801A704780EA010210B502F00043FB
:10018000400022D04A001FD0010E01EB1261C0F3E3
:100190005600C2F3560240F4000042F40002A0FBF5
:1001A000022000047F39140400D0401C50EA1240A1
:1001B00001D44000491EC2B20C0604EBD010401C12
:1001C0004008802A02D003E0002010BD20F001008A
:1001D000002900DA0020184310BD30B480EA010283
:1001E00002F0004530F0004221F0004013D090B101
:1001F000C30DD40DC2F31601C0F31600E41A41F486
:10020000000140F400027D34914201D3641C00E0FF
:100210004900002C02DA30BC002070474FF4000087
:100220000023914201D3891A034340084FEA410158
:10023000F7D151B1914202D14FF0004105E002D215
:100240004FF0010101E06FF0010103EBC4502844BD
:1002500030BC00F06BB8420005D0C0F3C752524228
:10026000914201DC0020704700EBC150704796239B
:100270000022114600F063B800F0004230F0004068
:100280000AD0C10D01F56071C0F3160042EA0151B8
:10029000C20840071143704700200146704730B53F
:1002A0000B46014600202022012409E021FA02F534
:1002B0009D4205D303FA02F5491B04FA02F52844CE
:1002C000151EA2F10102F1DC30BD2DE9F05F0546FB
:1002D000002092469B4688460646814640241BE005
:1002E0002846414647462246FFF71CFF53465A46DA
:1002F000C01A914110D311461846224600F018FA50
:100300002D1A67EB01084F4622460120002100F01C
:100310000FFA17EB00094E41201EA4F10104DFDCA7
:10032000484631462A464346BDE8F09F0029A8BF0B
:100330007047401C490008BF20F00100704710B40E
:10034000B0FA80FC00FA0CF050EA010404BF10BCC3
:10035000704749B1CCF1200421FA04F411FA0CF1F0
:1003600018BF012121430843A3EB0C01CB1D4FEA29
:1003700000614FEA102042BF002010BC704700EB24
:10038000C35010440029A4BF10BC7047401C490052
:1003900008BF20F0010010BC70472DE9FE4F8046D9
:1003A00081EA0300C00F0C46009021F0004123F0C9
:1003B0000045B8EB0200A94105D2404621469046CF
:1003C0001C460B46024623F00040104347D0270D41
:1003D000C7F30A00C3F30A510290401A0190402863
:1003E0006BDAC3F3130040F4801B0098924620B1EF
:1003F0000023D2EB030A63EB0B0B01985946C0F1C3
:100400004002504600F094F906460D4650465946C3
:10041000019A00F09CF910EB08006141002487EA82
:10042000115284EAE7731A4340D0009A62B3019AEA
:10043000012A4FEA075215DC001B61EB02014FF065
:10044000004202EA0752CDE90042001C41F580114A
:1004500032462B4600F09CF903B0BDE8F08F4046D1
:100460002146F9E7001B61EB0201001C41F58013F6
:1004700000185B412018A2F5001747EB030140EA82
:10048000D570B6196D4111E06D084FEA360645EAA0
:10049000C0754FEA0752001B61EB0201001C41F5D9
:1004A000801149084FEA30000019514132462B466D
:1004B00003B0BDE8F04F00F05CB9009801224000A5
:1004C0000023D0EB020263EBE073009821464FEA71
:1004D000E074B8EB000061EB0401E9E783F000434E
:1004E0005BE781F0004158E72DE9FE4F81EA030404
:1004F00004F0004421F0004100944FF0000B23F081
:10050000004350EA01045ED052EA03045BD0C3F317
:100510000A54C1F30A552C44A4F2F3340194A0FB0D
:100520000254C1F3130141F48011C3F3130343F4E4
:10053000801301FB024400FB034E840A970A44EA3D
:10054000815447EA8357A4FB076802958D0A05FB8F
:1005500007854FEA932C04FB0C542705029D4FEAB4
:10056000065847EA1637B5EB08056EEB070C870E01
:10057000920E47EA811742EA8312A7FB0201B6EB0B
:100580000B0164EB00042B0D43EA0C335E1844EBC3
:100590001C50DA465146E7FB0201C5F313044FEA4B
:1005A0000B3343EA14534FEA0432019C43EA060337
:1005B000A4F10C040294009CCDE900B400F0E8F82A
:1005C00003B0BDE8F08F00200146F9E72DE9F04DBA
:1005D00081EA030404F0004B21F0004514464FF07B
:1005E000000A23F0004150EA050220D054EA01023B
:1005F0001DD0C5F30A570246C5F31303C1F3130018
:10060000C1F30A5640F4801543F48013A7EB0608A3
:10061000101BD64608F2FD3873EB050002D308F133
:10062000010801E092185B41B8F1000F03DA0020E5
:100630000146BDE8F08D00204FF480110646844647
:100640000EE0171B73EB050705D3121B63EB0503C5
:1006500006434CEA010C49084FEA300092185B410E
:1006600050EA0107EDD152EA030012D082EA0400F9
:1006700083EA0501084305D0101BAB4106D20122D5
:10068000002306E000224FF0004302E06FF0010279
:1006900053101AEB06004CEB085110EB0A0041EB2B
:1006A0000B01BDE8F04D00F064B8C1F30A52C1F38C
:1006B000130140F2FF3341F480119A4202DA002024
:1006C0000146704740F233439A42A2F2334202DCC1
:1006D0005242FFF727BD00F02BB8000030B5041ED2
:1006E00071F1000404DB4FF00044404264EB01016F
:1006F000141E73F1000405DB1C464FF00043524208
:1007000063EB0403994208BF904230BD064C074D8D
:1007100006E0E06840F0010394E8070098471034D1
:10072000AC42F6D3FFF7E6FCF86D0008186E00083F
:10073000202A04DB203A00FA02F1002070479140A1
:10074000C2F1200320FA03F3194390407047202A96
:1007500006DBCB17203A41FA02F043EAE07306E0E9
:1007600041FA02F3D040C2F12002914008431946F9
:10077000704710B5141E73F1000408DA401C41F1F3
:10078000000192185B411A4301D120F0010010BD15
:100790002DE9F04D92469B4611B1B1FA81F202E08B
:1007A000B0FA80F220329046FFF7C2FF04460F46AF
:1007B00040EA0A0041EA0B0153465A46084313D067
:1007C000114653EA010019D0C8F140025046FFF724
:1007D000A9FC05460E46504659464246FFF7A8FF7B
:1007E000084305D0012004E020463946BDE8F08DDD
:1007F0000020054346EAE0762C4337430A98630518
:10080000E40AA0EB08000022FD0A44EA47540A303B
:1008100002D500200146E9E7010510196941DDE92B
:10082000084500196941BDE8F04DA2E770B58C1884
:1008300010F8015B15F0070301D110F8013B2A11F4
:1008400006D110F8012B03E010F8016B01F8016BE1
:100850005B1EF9D12B0705D40023521E0DD401F8DD
:10086000013BFAE710F8013BCB1A921C03E013F8A6
:10087000015B01F8015B521EF9D5A142D8D30020DB
:1008800070BD000070B5044600688168C943C9079F
:100890001CD1816821F00101816001F0EDFA05466B
:1008A0000FE000BF01F0E8FA401B022809D9A06A56
:1008B00040F01000A062E06A40F00100E062012018
:1008C00070BD20688068C043C007EBD0002070BDB9
:1008D0002DE9F84307468846002624196D41414614
:1008E00032463846FFF71EFC00F00100761C044338
:1008F000F6B2402EF1D32A4621460D4803F0C2FE3F
:100900002B460CA264211848009404F01FFF1648DF
:10091000FFF72AFC82B24FF47A731349134803F0AD
:100920005FF9034A0020C2E90A00BDE8F88300002D
:10093000F013002052657665727365202020202018
:1009400020202020202020202020202020204B6537
:10095000793A30782558207C203078255820484531
:100960005820200A0D000000040600204C0500203D
:10097000F0E90832DB1852410B43C0E90032017C38
:10098000491C017470470000F1B54E4C0326204607
:1009900094F83220C18A002552B1808A012A2CD0D5
:1009A000022A3CD0032A09D19DF8020090B332E01C
:1009B0009DF80200012802D084F83650F8BDBDF839
:1009C00000204FF6FF7000EA81013E4800F07EFDF6
:1009D00030B1012004F8320F2079401C2071F8BD9D
:1009E00094F836000228FAD90020E4E908002574BA
:1009F000BDF80000A082A674F8BD9DF8021051B9A0
:100A0000BDF8002001462F4800F060FD18B184F8C1
:100A10003250F8BD31E004F8325F2571F9E79DF8F6
:100A200002100129F5D1218B0844BDF8001088423D
:100A30001FD284F8325094F8300094F83110884274
:100A4000E7D304F120000FC842404B401A43E0D0E6
:100A5000C4E90A011B48203403F0DEFDD4E900019B
:100A6000FFF736FF0020C4E900002574A575A574C2
:100A7000CFE7BDF80000A08621E0A28E114800F06B
:100A800025FD022640B1BDF80020E18A0D4800F0A6
:100A90001DFD08B100210FE0A28EA18A094800F0D7
:100AA00015FD0028B7D0BDF80020A18A054800F048
:100AB0000DFD0028AFD001210248FFF759FF84F84F
:100AC0003260A6E7F0130020F1B5464C0025214620
:100AD00094F83230088BC98A01225BB10226012BBF
:100AE00021D0022B37D0032B1CD19DF80200012806
:100AF00053D02DE09DF80230002B13D1C1EBC10380
:100B000003EB8303BDF800501B1AAB420ADC01EB78
:100B1000C103C3EB81110844BDF80010884201D322
:100B200084F83220F8BD9DF80220002AFAD0BDF8E2
:100B300000300A1A9A420BDC0844BDF800108842C3
:100B400006D384F832600020E4E908002574F8BD7B
:100B500084F83250F8BD9DF80230002BF8D100EB3C
:100B60004100BDF80010884210D884F8322014F8F3
:100B7000300F61788842EDD31A4803F04DFDBDE88F
:100B8000F84000221146174803F07CBDBDF8000074
:100B9000A086032084F83200F8BDA28E114800F030
:100BA00095FC40B1BDF80020A18A0E4800F08EFCF3
:100BB00008B100210FE0A28EA18A0A4800F086FC4D
:100BC0000028C5D0BDF80020E18A064800F07EFC70
:100BD0000028BDD001210348FFF7CAFE84F8326027
:100BE000F8BD0000680E0020F1B5554C554E214669
:100BF00094F83200C98A002550B10227012818D084
:100C000002283CD0032813D19DF80200B0B394E031
:100C10009DF80200012815D1BDF80020484800F0D9
:100C200055FC78B1012084F832003078401C3070D7
:100C3000F8BD9DF8020040B9BDF80020404800F022
:100C400045FC10B184F83250F8BD3078022874D9D0
:100C5000BDF80010E08A00EBC00291426DD3BDF8F0
:100C6000001000EB400202EBC000814265D884F81E
:100C700032700020E4E908002574F8BD0AE09DF810
:100C800002000128F9D1BDF80000A086032084F8F5
:100C90003200F2E7208BBDF8002000EB41009042CB
:100CA0001CD884F8325094F830000028E5D004F1C4
:100CB00020000FC842404B401A43DED0C4E90A016D
:100CC0001F4803F0A9FCD4E9080103F053FD0020FC
:100CD000C4E9080084F830503570CEE7A28E184879
:100CE00000F0F4FB70B1BDF80020A18A144800F0B8
:100CF000EDFB38B194F8300094F83110884218D2E6
:100D0000012113E0A28EA18A0D4800F0DFFB98B10B
:100D1000BDF80020E18A0A4800F0D8FB60B194F8E1
:100D2000300094F83110884203D200210448FFF7C4
:100D30001FFE84F83270A0E7FFE784F83250CBE75B
:100D4000480F00200A000020F1B5464C002521463E
:100D500094F83230088BC98A01225BB10226012B3C
:100D600021D0022B37D0032B1CD19DF80200012883
:100D700053D02DE09DF80230002B13D1C1EBC103FD
:100D800003EB8303BDF800501B1AAB420ADC01EBF6
:100D9000C103C3EB81110844BDF80010884201D3A0
:100DA00084F83220F8BD9DF80220002AFAD0BDF860
:100DB00000300A1A9A420BDC0844BDF80010884241
:100DC00006D384F832600020E4E908002574F8BDF9
:100DD00084F83250F8BD9DF80230002BF8D100EBBA
:100DE0004100BDF80010884210D884F8322014F871
:100DF000300F61788842EDD31A4803F00DFCBDE84E
:100E0000F84000221146174803F03CBCBDF8000032
:100E1000A086032084F83200F8BDA28E114800F0AD
:100E200055FB40B1BDF80020A18A0E4800F04EFBF2
:100E300008B100210FE0A28EA18A0A4800F046FB0B
:100E40000028C5D0BDF80020E18A064800F03EFB2E
:100E50000028BDD001210348FFF78AFD84F83260E5
:100E6000F8BD0000A00E0020F1B53E4C0025214643
:100E700094F83220088BC98A01263AB1012A22D07F
:100E8000022A1FD19DF8022042B367E09DF802209C
:100E9000002A17D101EB4102C2EB4112BDF800302C
:100EA000121A9A420EDC01EB011202EB41110844C6
:100EB000BDF80010884205D384F832600020E4E9D0
:100EC00008002574F8BD9DF802000128FAD1BDF88C
:100ED0000000A086022084F83200F8BD01EB8102F8
:100EE00000EB4200BDF80020904215D884F8326033
:100EF00094F8300094F83110884207D3194803F071
:100F00008BFB00221146174803F0BCFB0020C4E90C
:100F1000080084F83050F8BDA28E124800F0D6FACE
:100F200040B1BDF80020A18A0E4800F0CFFA08B108
:100F300000210DE0A28EA18A0A4800F0C7FA68B12C
:100F4000BDF80020E18A074800F0C0FA30B1012165
:100F50000448FFF70DFD84F83260F8BD84F8325084
:100F6000F8BD0000D80E0020F1B53E4C002521460A
:100F700094F83220088BC98A01263AB1012A22D07E
:100F8000022A1FD19DF8022042B367E09DF802209B
:100F9000002A17D101EB4102C2EB4112BDF800302B
:100FA000121A9A420EDC01EB011202EB41110844C5
:100FB000BDF80010884205D384F832600020E4E9CF
:100FC00008002574F8BD9DF802000128FAD1BDF88B
:100FD0000000A086022084F83200F8BD01EB8102F7
:100FE00000EB4200BDF80020904215D884F8326032
:100FF00094F8300094F83110884207D3194803F070
:101000000BFB00221146174803F03CFB0020C4E90B
:10101000080084F83050F8BDA28E124800F056FA4D
:1010200040B1BDF80020A18A0E4800F04FFA08B187
:1010300000210DE0A28EA18A0A4800F047FA68B1AB
:10104000BDF80020E18A074800F040FA30B10121E4
:101050000448FFF78DFC84F83260F8BD84F8325004
:10106000F8BD0000100F0020F1B5534C03262046B8
:1010700094F83220808A4FF6FF7101EA4001002582
:101080004AB1012A28D0022A37D0032A09D19DF873
:10109000020088B32CE09DF80200012802D084F8F9
:1010A0003650F8BDBDF80020434800F00FFA30B1CB
:1010B000012004F8320F2079401C2071F8BD94F80B
:1010C00036000428FAD90020E4E908002574BDF8A8
:1010D0000000A082A674F8BD9DF8020040B9BDF8DA
:1010E0000020354800F0F2F910B184F83250F8BD14
:1010F00004F8325F2571F8BD2BE09DF8021001293C
:10110000F9D1218B0844BDF8001088421DD284F823
:10111000325094F830000028EDD004F120000FC8C0
:1011200042404B401A43E6D0C4E90A012248203429
:1011300003F072FAD4E9000103F082FE0020C4E952
:1011400000002574A575A574D5E7BDF80000A0863C
:101150002EE0A28EE18A184800F0B8F9022670B19C
:10116000BDF80020E18A144800F0B0F938B194F8D5
:10117000300094F8311088421AD2012115E0A28E75
:10118000A18A0D4800F0A2F90028B1D0BDF80020D6
:10119000A18A094800F09AF90028A9D094F83000F3
:1011A00094F83110884203D200210348FFF7E0FB96
:1011B00084F832609FE70000B81300202DE9F04169
:1011C000544E88B003203070042005F067F93520B4
:1011D00000F066F9002003F003FD00211E2003F05B
:1011E0000BFD01224C494DA003F0FEFD01270A230F
:1011F000802219460020009703F013FC34210020C0
:1012000003F0FAFC48A2182102A804F09FFA012278
:10121000414902A803F0E8FD484C002108460F238D
:10122000227A03E0401C43EA0111C0B2B0EB920FF6
:10123000F8D331F07F4562D04FF4FA78A07A0A28CB
:101240003AD004DC012807D0022854D131E00B2821
:101250003AD00C284FD139E02078012802D002285A
:101260000BD01AE0637A227A2846002103F0B6FEFA
:10127000617A207A2B4632A209E0637A227A2846E4
:10128000002103F0DDFE617A207A2B4630A2CDE901
:101290000001182102A804F059FA2221002003F0CD
:1012A000ABFC01221C4902A803F09EFD03F0B0FD37
:1012B00021E002F095FF22E0401CA07234210020C2
:1012C00003F09AFC26A208E06D1C14E0A7723421FA
:1012D00000206D1D03F090FC13A2182102A804F059
:1012E00035FA01220C4902A803F07EFD03F090FDBF
:1012F000404600F0BBFC02F073FF6D1E9ED1032040
:1013000005F0CCF80220307005F05EF908B0BDE8B9
:10131000F0810000EC0300200C0000204272757484
:1013200065466F726365000053544F5020202020A3
:10133000202020202050415553450000AC130020B0
:1013400043414D452825582C25692C256929200025
:101350004E4943452825582C25692C25692920000C
:1013600053544F502020202020202020205354412F
:1013700052540000FEE7000070B50546282000F03A
:1013800075FC362000F08CF8282000F06FFC30202F
:1013900000F086F8642000F069FC362000F080F848
:1013A0000A2000F063FC134C00222188A06800F0A2
:1013B0005EFD012D02D0022D0BD103E064234822F3
:1013C0000D4903E00C4964234A224831606801F06A
:1013D00061FE01222188A06800F049FD0A2000F08A
:1013E00045FC362000F05CF8BDE87040642000F059
:1013F0003DBC0000F80300204C6D000810B50D2026
:1014000000F02AF804040E2000F026F844EA002434
:101410000F2000F021F82043FEF729FF0549FEF7D1
:10142000AAFE6FF00F01FEF716FFBDE8104002495B
:10143000FEF7D3BE405DC64B00247449054B10B582
:10144000C3E901011A8001F0BDFC08B1002010BD04
:10145000012010BDF803002011B581B00F4C9DF89C
:101460000400002240F080008DF804002188A0686C
:1014700000F0FDFC6423012201A9606801F00AFE6E
:10148000642301226946606801F00EFD0122218873
:10149000A06800F0ECFC9DF800001CBDF8030020E3
:1014A00031B5094C00222188A06800F0E0FC6423DB
:1014B00001226946606801F0EDFD01222188A068E3
:1014C00000F0D5FC38BD0000F8030020008B0B1A9B
:1014D000934204DC0844904201D30120704700206D
:1014E0007047000010B5124C0121204600F0B6FCF8
:1014F00008B1012010BD0821204600F0AFFC08B162
:10150000022010BD0421204600F0A8FC08B10320F1
:1015100010BD0221204600F0A1FC08B1042010BD3E
:101520001021204600F09AFC0028F8D0052010BDBC
:10153000000801400E4910B5496806280CD2DFE8C2
:1015400000F00B030F111315087C78B1BDE81040B3
:1015500004F0A4BF04F05AFFBDE8104004F0A6BD9B
:101560004868F7E70868F5E78868F3E7C868F1E7CF
:1015700024000020014800F0EFB90000CC05002055
:1015800010B5046863604368102B036803D099604A
:101590000068C26010BD9A600068C16010BD0000A4
:1015A0000E48016821F080710160016841F080718E
:1015B00001600B48016821F001010160016841F000
:1015C000010101600021416000BF00BF00BF406811
:1015D00008B100207047012070470000FCED00E0DA
:1015E000001000E031B5084D6C6801F0B1F8074912
:1015F000B0FBF1F000994843009068680099001B27
:101600008842FAD338BD0000001000E040420F00CD
:1016100031B5084D6C6801F09BF80749B0FBF1F05B
:1016200000994843009068680099001B8842FAD3EB
:1016300038BD0000001000E040420F00704701205C
:1016400000F022BB022000F01FBB042000F01CBBF6
:10165000082000F019BB102000F016BB0EB504489E
:1016600001680091416801918068029002980EBD66
:10167000E8F7FF1FF8B50025009590F82420AE4646
:10168000012A1ED0012280F824204A681F244FF42A
:101690007873072A17D20668776B93FAA3FCBCFA13
:1016A0008CFC521E02FB0CFC04FA0CF4A74393FAC8
:1016B000A3F3B3FA83F30C685A4394402743776348
:1016C0002DE00220F8BD06680D2A14D2376B93FA7C
:1016D000A3FCBCFA8CFCD21F02FB0CFC04FA0CF439
:1016E000A74393FAA3F3B3FA83F30C685A439440E5
:1016F0002743376313E0F76A93FAA3FCBCFA8CFC28
:101700000D3A02FB0CFC04FA0CF4A74393FAA3F382
:10171000B3FA83F30C685A4394402743F7620A688C
:101720003823072406680A2A14D3F76893FAA3FC1F
:10173000BCFA8CFC0A3A02FB0CFC04FA0CF4A7433A
:1017400093FAA3F3B3FA83F38C685A439440274384
:10175000F76012E0376993FAA3FCBCFA8CFC02FB39
:101760000CFC04FA0CF4A74393FAA3F3B3FA83F343
:101770008C685A439440274337610A68102A01D085
:10178000112A20D1124B02689A4217D193681B028A
:1017900019D4936843F4000393600968102912D1A7
:1017A0000C490D4A0968B1FBF2F101EB81014900D6
:1017B00000E0491E00910029FBD104E0816A41F05C
:1017C00020018162012580F824E02846F8BD000050
:1017D000002401400404002040420F002DE9F041A4
:1017E00004004FF0000513D0A06A002628B9E66275
:1017F00084F82460204600F08BF82046FFF742F87A
:10180000A16AC90600D420B1A06A40F01000A0620D
:1018100078E0A16A21F4885141F00201A162626876
:10182000E16902270A43E16897FAA7F70B46B7FA7E
:1018300087F7B9400A43A1684FF48077B94209D0CD
:10184000012907D05FF00001D4F814C0BCF1010FEA
:1018500002D00AE03946F7E7F3B1A36A43F0200368
:10186000A362E36A43F00103E3622368D3F804C090
:101870002CF4694C4CEA010CC3F804C021688B6855
:10188000DFF884C003EA0C0313438B60A168B942FC
:1018900010D001290ED016E04FF4604CA3699CFAD9
:1018A000ACFCBCFA8CFC5B1E03FA0CF30B4343F458
:1018B0000061DAE74FF47001256991FAA1F1B1FAFC
:1018C00081F16D1E8D402168CB6A23F470032B4398
:1018D000CB62216889680D4B1940914208D1E662BC
:1018E000A16A21F0020141F00101A162BDE8F0818D
:1018F000A06A20F0020040F01000A062E06A40F010
:101900000100E0620120F1E7FDF7E1FFFE0E1FFF9D
:1019100000B500680B4985B0884210D10A4881693A
:1019200041F4007181618069694600F4007004909F
:101930008020009003200190044800F0B1F905B028
:1019400000BD0000002401400010024000080140DA
:1019500090F82100704700002DE9F05FDFF8608209
:101960000446D8F80020DFF858B2954D944E944FB5
:101970000068DFF84C92DFF848A20BF1080B1C3529
:10198000303644374FF400614FF4004C4FF4002ED2
:1019900009F158090AF16C0A584501D1082316E0EB
:1019A000A84201D1802312E0B04201D10B460EE0E3
:1019B000B84201D163460AE0484501D1734606E0CA
:1019C000504502D14FF4000301E04FF000631A428A
:1019D00031D00268D24312072DD4026822F00802E7
:1019E00002602068584501D1082114E0A84201D1C5
:1019F000802110E0B0420ED0B84201D161460AE029
:101A0000484501D1714606E0504502D14FF400012E
:101A100001E04FF00061C8F80410606B40F0010075
:101A20006063042084F82100002084F82000216BEA
:101A300009B1204688476248D0F800C04FF4806161
:101A400020680A010B044FF4802E584502D14FF054
:101A5000040816E0A84202D14FF0400811E0B0425D
:101A600001D188460DE0B84201D1904609E04845D1
:101A700001D1F04605E0504502D14FF4800800E066
:101A800098461CEA080F33D0D0F800C06FEA0C0C5F
:101A90005FEA4C7C2CD4D0F800C05FEA8C6C05D493
:101AA000D0F800C02CF0040CC0F800C020685845E5
:101AB00001D1042113E0A84201D140210FE0B0423E
:101AC0000DD0B84201D1114609E0484501D1714617
:101AD00005E0504502D14FF4800100E01946384836
:101AE0004160112084F82100E16A09B1204688474D
:101AF000334AD2F800C05B46206851154FF4005BB2
:101B00004FF4003E984202D14FF0020817E0A8427D
:101B100002D14FF0200812E0B04201D188460EE019
:101B2000B84201D1D8460AE0484501D1F04606E066
:101B3000504502D14FF4001801E04FF000781CEA44
:101B4000080F3BD0D0F800C06FEA0C0C5FEA8C7C29
:101B500034D4D0F800C05FEA8C6C05D4D0F800C053
:101B60002CF0020CC0F800C02068984201D102217C
:101B700014E0A84201D1202110E0B0420ED0B842BA
:101B800001D159460AE0484501D1714606E0504569
:101B900002D14FF4001101E04FF000715160606B11
:101BA0006063012084F82100002084F82000A16AED
:101BB000002903D02046BDE8F05F0847BDE8F09F4C
:101BC0000000024070B520B190F82110002411B13E
:101BD00003E0012070BD80F82040022180F8211030
:101BE00003681A6843F6F0718A43D0E90115294366
:101BF000D0E903563543294345692943856929437B
:101C0000C5692943114319604463012180F82110FB
:101C1000002070BD70B5044690F82000012823D044
:101C2000012084F82000022084F821002068056843
:101C300025F0010505602046FFF7A2FC2068016839
:101C400041F0020101602068016841F00401016077
:101C50002068016841F0080101602068016841F0D6
:101C600001010160002070BD022070BD31B500F09F
:101C700003F9044600F000F90099001B8842F9D3EB
:101C800038BD02F0ADBA0000044910B50A6802423E
:101C900002D00860FFF7F5FF10BD000014040140FA
:101CA0002DE9F84FDFF890A100220AF1040B144649
:101CB00001274FF00F090BF1040E00BF0B6807FA64
:101CC00004F52B40AB4274D1DFF870C14E68A6EB2F
:101CD0000C0866452BD00DDC032E34D005DC36B362
:101CE000012E19D0022E2FD11BE0112E16D0122E4C
:101CF0002AD119E0B8F5881F19D006DCB8F5803F65
:101D000015D0B8F5801F1FD111E0B8F5001F0ED017
:101D1000B8F5041F18D10AE0CA6815E0CA68121D98
:101D200012E0CA6808320FE0CA680C320CE08A6818
:101D30002AB1012A4FF0080203D0456104E00422D1
:101D400002E0056100E00022FF2B01D8064601E019
:101D500000F104064FEA840501D9A5F12005D6F863
:101D600000C009FA05F82CEA080C02FA05F54CEA5D
:101D7000050CC6F800C04D68ED0057D5304DAE6972
:101D800046F00106AE61AD6924F0030605F00105D9
:101D900000952C4D06EB050CDCF80850A6074FEA21
:101DA000167809FA08F6B543274EB04202D100264C
:101DB00010E03BE0254EB04201D101260AE0244E5E
:101DC000B04201D1022605E0224EB04201D10326E5
:101DD00000E0042606FA08F62E43CCF808604D68A9
:101DE000DAF80060ED03554601D51E4300E09E433E
:101DF0002E604D68DBF80060AD035D4601D51E43E3
:101E000000E09E432E604D68DEF80060ED027546EE
:101E100001D51E4300E09E432E604D68AD020E4D7D
:101E20002E6801D51E4300E09E432E60641C102CDA
:101E3000FFF444AFBDE8F88F00040140000011102A
:101E4000001002400000014000080140000C014069
:101E500000100140001401400C040140806808405B
:101E600000D001207047C2684A40C26070470AB182
:101E7000016170470904FBE70148006870470000F2
:101E8000080400207047000070B5040004D094F8E6
:101E90003500002510B106E0012070BD84F83450F3
:101EA000204600F0FBF9242084F835002068016802
:101EB00021F00101016000F051FC01462848226830
:101EC000B1FBF0F05060274A6368934206D94FF4A3
:101ED000967358434FF47A73B0FBF3F02368401CB9
:101EE00018626068904208D84000B1FBF0F0C0F37F
:101EF0000B01042916D2042014E0A26852B100EBB1
:101F0000C00202EB0010B1FBF0F040F440400105CC
:101F100007D007E000EB4000B1FBF0F040F40040D8
:101F2000F5E701202168C861D4E907010843216869
:101F30000860D4E90310084321688860D4E90501EA
:101F400008432168C8602068016841F00101016010
:101F5000A563202084F8350084F83650002070BD39
:101F600040420F00A08601002DE9FF4F044690F883
:101F7000350081B099468B460125202873D142F265
:101F8000107301224849204601F020FF00286AD141
:101F900094F83400012866D0012084F834002068C9
:101FA000016821F400610160242084F835000026D6
:101FB000A66320272068016841F4807101604B46C8
:101FC00000224FF00111204601F000FF00285CD1F3
:101FD00021680BF0FE000861FFF74EFF2168804684
:101FE00048694969C0F3400094F83520C1F3802165
:101FF0004FF0A00A14E000BFB9F1000F05D0FFF7C1
:102000003BFFA0EB0801494501D984F835A02168C0
:1020100048694969C0F3400094F83520C1F3802134
:10202000084301D1A02AE7D184F8357020684169BE
:10203000C943890718D4016841F400710160206820
:1020400041698069009042F21073012216492046CE
:1020500001F0BCFEC8B984F8357084F83460002003
:1020600005B0BDE8F08F1DE0016841F4007101602A
:102070002068416921F48061416142F210730122BC
:102080000949204601F0A2FE08B10320E8E72846EE
:1020900003996D1C88428DD384F8357084F83460C0
:1020A0000120DDE70220DBE702001000704700009E
:1020B0002DE9F843044690F83500DDF820801D46F0
:1020C0001746894620287BD1002F7AD0002D7ED05C
:1020D00042F2107301224049204601F077FE0028A9
:1020E00077D194F83400012873D0012084F83400AB
:1020F0002068016821F400610160212084F8350026
:10210000102084F836000026A66342464946204641
:1021100001F022FE28B1A06B84F83460042856D068
:102120000BE020684169806900904146204601F03B
:10213000D6FE28B1A06B042844D00320BDE8F88364
:10214000216817F8010B086120686D1EADB2416966
:10215000C943490705D435B117F8011B01616D1E4C
:10216000ADB2002DE1D14546FFF786FE804620271F
:1021700016E0204601F0DAFD0028DBD1681C0FD004
:102180002DB1FFF779FEA0EB0800A84208D9A06B9B
:1021900040F02001A16384F8357084F83460C9E709
:1021A00020684069C0434007E3D42068016841F4D7
:1021B0000071016084F8357084F834600020BDE758
:1021C00007E004E02068016841F40071016001202B
:1021D000B4E70220B2E70000020010002DE9F84346
:1021E000044690F835001D461746884620284CD1F5
:1021F0004FB145B142F2107301222549204601F04A
:10220000E5FDA0BB02E00120BDE8F88394F83400AE
:1022100001283AD0012084F834002068016821F4B4
:1022200000610160212084F83500102084F8360018
:102230000026A663676225856585E16A15482B46F9
:102240008862E16A14480863226839461032E06AFD
:10225000FFF7E0FC23224146204601F07DFD38B126
:10226000A06B84F834600428CDD00320CCE70CE0C8
:102270002068416841F400614160206841698069DB
:10228000009084F834600020BEE70220BCE7000024
:1022900002001000D93C0008AF3C000830B50546EC
:1022A00000681C4985B0884231D14FF440700090DD
:1022B000122001900320039069461748FFF7F0FCB5
:1022C0001648416841F0020141601548C16941F476
:1022D0000011C161C069144C00F400100490114851
:1022E00020601020606000208021C4E9020120618C
:1022F0006061A0614FF44050E0612046FFF762FC4E
:1023000018B1AB2109A003F01FFAEC62656205B0B9
:1023100030BD000000540040000C014000000140AE
:10232000001002406C000240CC0500202E2E2F53DE
:1023300072632F73746D3332663178785F68616CC5
:102340005F6D73702E63000002480168491C0160D4
:102350007047000008040020074810B5016841F0EC
:1023600010010160032000F087F8002000F006F85B
:1023700000F016F8002010BD0020024010B5044601
:1023800000F0E6F94FF47A71B0FBF1F001F08BF850
:1023900000222146501E00F04FF8002010BD000022
:1023A0001D4808B5816941F001018161806900F033
:1023B00001000090032000F05FF8002211466FF04A
:1023C0000B0000F039F8002211466FF00A0000F00F
:1023D00033F8002211466FF0090000F02DF80022BA
:1023E0001146501F00F028F800221146101F00F07F
:1023F00023F800221146901E00F01EF8002211461C
:10240000501E00F019F80548416821F0E06141F0E4
:102410000071416008BD0000001002400000014052
:1024200000F01F02012191404009800000F1E020EE
:10243000C0F8001170470000F0B40E4B1B680C464A
:10244000C3F30223C3F10705042D00D90425191D88
:10245000072901D2002300E0DB1E012606FA05F160
:10246000491E214099409E40761E16403143F0BCE3
:1024700002F0B0B80CED00E0064900F00702086871
:102480004FF6FF03184040EA0220034A1043086059
:10249000704700000CED00E00000FA052DE9F8435C
:1024A00005460078454CC00774D0E06940F0805084
:1024B000E061E069424E00F080500090306840F4E6
:1024C00080703060FFF7D8FC074604E0FFF7D4FCCB
:1024D000C01B642833D83068C005F7D5206A10F4D3
:1024E000407051D0A98801F4407181424CD0206ADB
:1024F0000126310491FAA1F2B2FA82F29300314A34
:1025000020F440701344C3F8006491FAA1F1B1FAC9
:1025100081F102EB81010023C1F800342062C00781
:1025200032D0FFF7A9FC074641F288394FF0020884
:1025300008E000BFFFF7A0FCC11B494502D90320FA
:10254000BDE8F88398FAA8F1B1FA81F141F04001B1
:102550004046B6EB511F01D121680BE090FAA0F183
:10256000B1FA81F141F04001B0EB511F01D1216A74
:1025700000E0616A98FAA8F0B0FA80F000F01F025B
:1025800006FA02F00142D5D0206A696820F4407052
:10259000084320622878800705D56068A96820F480
:1025A0004040084360602878C00605D56068E96847
:1025B00020F48000084360600020C1E70010024062
:1025C00000700040000042422DE9F047DFF87081C2
:1025D00005460E46D8F8000000F00700B0420CD2C5
:1025E000D8F8001021F007013143C8F80010D8F8DE
:1025F000000000F00700B04277D12878514C8007E6
:1026000005D56068A96820F0F0000843606028786C
:10261000C00759D06968012001290DD0022929D0AD
:102620005FF0020393FAA3F2B2FA82F242F02002C0
:10263000520904D0226803E04FF40033F2E7626AE3
:1026400093FAA3F3B3FA83F303F01F039840024213
:102650004BD0606820F0030008436060FFF70CFC7B
:102660006968074641F2883001290DD00229814668
:1026700017D025E04FF00073D4E700BFFFF7FCFB55
:10268000C11B494501D918E081466068C0F381004B
:102690000128F3D118E000BFFFF7EEFBC11B49454D
:1026A0000BD86068C0F381000228F5D10CE000BFB0
:1026B000FFF7E2FBC11B494502D90320BDE8F087C3
:1026C000606810F00C0FF3D1D8F80010404601F00C
:1026D0000701B1420BD9016821F0070131430160C4
:1026E000006800F00700B04201D00120E6E728783A
:1026F000400705D56068E96820F4E0600843606041
:102700002878000706D56068296920F4605040EAFF
:10271000C100606000F052F86168F02292FAA2F203
:1027200001F0F001B2FA82F2D140074A515CC84090
:10273000064908600020FFF721FE0020BEE70000E8
:102740000020024000100240DE6D0008040400205A
:102750000148006870470000040400200848094947
:10276000006849684FF4E06292FAA2F201F4E06175
:10277000B2FA82F2D140044A515CC840704700006E
:102780000404002000100240EE6D000808480949CA
:10279000006849684FF4605292FAA2F201F4605165
:1027A000B2FA82F2D140044A515CC840704700003E
:1027B0000404002000100240EE6D000810B519A3BB
:1027C00085B00FCB8DE80F001AA01B4B006804905A
:1027D0005A681A4802F00C0104291DD008291BD19F
:1027E0004FF4701494FAA4F402F47011B4FA84F45F
:1027F000E140D2031DF8011010D55A684FF40033A0
:1028000093FAA3F302F40032B3FA83F3DA4004AB91
:102810009A5CB0FBF2F0484305B010BD084848434D
:10282000FAE7000002030405060708090A0B0C0D6D
:102830000E0F1010010200000010024000127A007A
:1028400000093D002DE9F84F04460078F74DC00718
:102850004FF0010625D068687704C0F38100012895
:1028600007D06868C0F3810002281BD16868C003E4
:1028700018D597FAA7F0B0FA80F040F02000400990
:1028800001D0286800E0686A97FAA7F1B1FA81F1EF
:1028900001F01F0106FA01F108425ED060680028CD
:1028A0007CD05AE06068B0F5803F0BD010B1B0F535
:1028B000A02F11D0286820F480302860286820F4E8
:1028C000802002E0286840F480302860606828B3E7
:1028D000FFF7D2FA80460BE0286840F48020286099
:1028E000F0E700BFFFF7C8FAA0EB0800642871D832
:1028F00097FAA7F0B0FA80F040F02000400901D02C
:10290000286800E0686A97FAA7F1B1FA81F101F04E
:102910001F0106FA01F10842E4D01EE0FFF7ACFA0D
:10292000804605E0FFF7A8FAA0EB08006428DED88F
:1029300097FAA7F0B0FA80F040F02000400901D0EB
:10294000286800E0686A97FAA7F1B1FA81F101F00E
:102950001F0106FA01F10842E4D12078DFF8D082A5
:1029600080074FF000094FF002075BD568684FF011
:10297000F80B10F00C0F07D06868C0F38100022834
:102980001CD16868C00319D497FAA7F0B0FA80F098
:1029900040F02000400902D0286801E08BE0686A1E
:1029A00097FAA7F1B1FA81F101F01F0106FA01F1DE
:1029B00008422CD0206901287DD128E0206990B3FD
:1029C00096FAA6F0B0FA80F048F82060FFF754FAC3
:1029D000824607E011E100BFFFF74EFAA0EB0A00C4
:1029E000022884D897FAA7F0B0FA80F040F02000CF
:1029F000400901D0286800E0686A97FAA7F1B1FAA7
:102A000081F101F01F0106FA01F10842E4D02868C3
:102A10009BFAABF26169B2FA82F220F0F8009140C1
:102A20000843286025E0FFE796FAA6F1B1FA81F1A4
:102A300048F82190FFF720FA824605E0FFF71CFADC
:102A4000A0EB0A000228CCD897FAA7F0B0FA80F0E1
:102A500040F02000400901D0286800E0686A97FA39
:102A6000A7F1B1FA81F101F01F0106FA01F1084264
:102A7000E4D1207800076ED5A069B8B396FAA6F025
:102A8000B0FA80F008EB8000C0F88064FFF7F4F93A
:102A9000824605E0FFF7F0F9A0EB0A000228A0D873
:102AA00097FAA7F0B0FA80F040F06000B6EB501F44
:102AB00002D128680CE062E197FAA7F0B0FA80F042
:102AC00040F06000B7EB501F01D1286A00E0686A4F
:102AD00097FAA7F1B1FA81F101F01F0106FA01F2AC
:102AE0001042D7D00120FFF7C1F834E0FFE796FA93
:102AF000A6F1B1FA81F108EB8101C1F88094FFF7EA
:102B0000BBF9824606E000BFFFF7B6F9A0EB0A006A
:102B1000022872D897FAA7F0B0FA80F040F060006F
:102B2000B6EB501F01D128680BE097FAA7F0B0FA76
:102B300080F040F06000B7EB501F01D1286A00E040
:102B4000686A97FAA7F1B1FA81F101F01F0106FA5C
:102B500001F21042D8D12078400765D5E86940F0ED
:102B60008050E861E869DFF8CCB000F08050009058
:102B7000DBF8001041F48071CBF80010FFF77CF90E
:102B8000824605E0FFF778F9A0EB0A00642834D804
:102B9000DBF80000C005F5D5E06801280AD008B1CF
:102BA000052813D0286A20F001002862286A20F046
:102BB000040002E0286A40F001002862E06841F267
:102BC000883B90B3FFF758F982460BE0286A40F043
:102BD00004002862EEE700BFFFF74EF9A0EB0A0100
:102BE00059450AD897FAA7F0B0FA80F040F04000B3
:102BF000B6EB501F02D128680CE0A3E097FAA7F0CB
:102C0000B0FA80F040F04000B7EB501F01D1286AC5
:102C100000E0686A97FAA7F1B1FA81F101F01F02AA
:102C200006FA02F10842D7D031E005E00010024078
:102C30000000424200700040FFF71EF9824605E0A6
:102C4000FFF71AF9A0EB0A0159457BD897FAA7F0CC
:102C5000B0FA80F040F04000B6EB501F01D1286878
:102C60000BE097FAA7F0B0FA80F040F04000B7EB25
:102C7000501F01D1286A00E0686A97FAA7F1B1FAFB
:102C800081F101F01F0206FA02F10842D8D1E06991
:102C900080B36968C1F38101022970D04FF080715F
:102CA0004F000228484609D091FAA1F1B1FA81F10A
:102CB00048F82100FFF7E0F8044669E08A4691FAF7
:102CC000A1F1B1FA81F1C14648F82100FFF7D4F82B
:102CD000804605E0FFF7D0F8A0EB0800022854D8A2
:102CE00097FAA7F0B0FA80F040F02000400902D037
:102CF000286801E061E0686A97FAA7F1B1FA81F10A
:102D000001F01F0106FA01F10842E3D1206AB0F593
:102D1000803F05D16868A16820F4003008436860EE
:102D2000D4E908010843696821F474110843686014
:102D30009AFAAAF0B0FA80F049F82060FFF79CF800
:102D4000044606E021E000BFFFF796F8001B0228CA
:102D50001BD897FAA7F0B0FA80F040F020004009A5
:102D600001D0286800E0686A97FAA7F1B1FA81F10A
:102D700001F01F0106FA01F10842E5D01DE01EE056
:102D8000FFF77AF8001B022802D90320BDE8F88F6C
:102D900097FAA7F0B0FA80F040F02000400901D087
:102DA000286800E0686A97FAA7F1B1FA81F101F0AA
:102DB0001F0106FA01F10842E2D10020E6E70120F6
:102DC000E4E7000010B5040003D094F8510010B1FE
:102DD00004E0012010BD204600F038F8022084F8FD
:102DE00051002068016821F040010160D4E901012F
:102DF0000843D4E903121143084361690843218B56
:102E000001F400710843E1690843216A0843A16A9B
:102E1000084321680860A069042101EA1040616A42
:102E20000843216848602168E06A08612068C16938
:102E300021F40061C161044900200870606501202F
:102E400084F85100002010BD0C04002010B500686B
:102E5000124986B088421ED11148C16941F48041AF
:102E6000C161C0690F4C00F4804004904FF42040D1
:102E70000090022001900320039069462046FEF74F
:102E80000FFF00214FF48040CDE900010291694617
:102E90002046FEF705FF06B010BD000000380040D8
:102EA00000100240000C01402DE9F84F00259A4621
:102EB0000446ADF8005090F8510001287ED1E9B3E6
:102EC000E2B394F85000012878D0012684F85060CD
:102ED000222084F851006565A163A287E287A5647A
:102EE000E5642563A586E586A0684FF4004948455A
:102EF00004D12068036823F480430360A06A4FF480
:102F00000057B84209D12068036823F400530360D6
:102F10002068036843F40053036060684FF48278CC
:102F2000404501D1A06878B120680168490603D402
:102F3000016841F040010160E06800E001E0E8B1B3
:102F400031E00120BDE8F88F84F8505013460A465E
:102F50002046CDF800A000F040F9F3E753460022E8
:102F60000121204601F05AFC48BB2068C168A06BD3
:102F7000421CA2630170E08F401EE087E08F0128B1
:102F8000ECD813E0534600220121204601F046FC14
:102F9000A8B92068C068A16B0880A06B801CA063E2
:102FA000E08F401EE087E08F0128EBD8A06AB8428E
:102FB00007D12068016841F4805101E068E007E032
:102FC0000160534600220121204601F027FC08B190
:102FD0000320B7E7E0680028206817D0C068A16B1D
:102FE0000880A06B801CA063E08F401EE087A06A71
:102FF000B84217D1534600220121204601F00EFCB1
:1030000050B1606D40F002006065E1E7C168A06BFF
:10301000421CA2630170E7E72068C068ADF80000B9
:10302000BDF80000606840450AD1A068484502D05C
:10303000B0F5806F04D12068016821F04001016083
:1030400084F85160A06AB8420DD120688068C043FE
:10305000C00608D4204601F0DFFB012807D0216814
:103060006FF01000886084F8505000206AE7606DAF
:1030700040F0020060652068016821F400510160A1
:103080002068016841F40051016084F8505058E70D
:10309000022057E72DE9F843044690F8510098467E
:1030A000012870D139B332B394F8500001286AD0A6
:1030B000012684F85060122084F8510000256565CF
:1030C0002163A286E286E564A564A563A587E587FA
:1030D000A06A7703B84209D12068016821F4005141
:1030E00001602068016841F400510160A068B0F5FA
:1030F000004F03D007E00120BDE8F8832068016895
:1031000041F48041016020680168490603D40168E8
:1031100041F040010160E0680028606804D0D8B147
:10312000E08E012818D021E010B1E08E012808D1EE
:10313000206B411C216321680078C860E08E401E2E
:10314000E0860004000C1FD04346002202212046E6
:1031500001F064FBA8B9EBE7206B21680088C86028
:10316000206B801C2063E08E401EE0860004000C73
:103170000AD0434600220221204601F04FFB0028DE
:10318000EAD00320B8E726E0A06AB84204D120685C
:10319000016841F48051016043460022022120462B
:1031A00001F03CFB30B9434601228021204601F06A
:1031B00035FB20B1606D40F010006065E1E7A0686C
:1031C00018B92068C1688068009084F8516084F85C
:1031D0005050002090E702208EE72DE9F8430025AB
:1031E000DDF820800446ADF8005090F85100012829
:1031F00003D094F8510022287DD169B162B15BB14E
:1032000094F85000012876D0012684F8506094F894
:103210005100012803D005E00120BDE8F8833220E9
:1032200084F851006565A263A387E3872163A386C1
:10323000E386A564E564A06A4FF40057B84209D15B
:103240002068016821F4005101602068016841F4A0
:103250000051016020680168490603D4016841F00B
:1032600040010160E0684FF48271B0F5006F606862
:1032700007D0002867D088426ED1E08E012862D046
:103280006AE020B188420CD1E08E012809D1206B80
:1032900021680088C860206B801C2063E08E401E7F
:1032A000E086E08E80B9A06AB84244D12068016807
:1032B00041F4805101603EE02068C068A16B088045
:1032C000A06B801CA0639EE04346002202212046A2
:1032D00001F0A4FA002874D1206B21680088C8602E
:1032E000206B801C2063E08E401E0004000CE086F2
:1032F00009D1A06A00E0C7E0B84204D120680168A3
:1033000041F480510160434600220121204601F032
:1033100085FA00286FD12068C068A16B0880A06B77
:10332000801CA063E08F401EE087E08E0028CBD198
:10333000606800286AD1434600220121204601F03E
:103340006DFAF0BBB8E7206B411C2163216800785F
:10335000C860E08E401EE086E08E98B9A06AB84250
:1033600004D12068016841F4805101604346002285
:103370000121204601F052FA18BB2068C068A16BF9
:10338000087040E0434600220221204601F046FA40
:10339000B8B9206B411C216321680078C860E08EB9
:1033A000401E0004000CE08607D1A06AB84204D198
:1033B0002068016841F480510160002243460121E8
:1033C00000E018E0204601F029FAA0B92068C168A1
:1033D000A06B421CA2630170E08F401EE087E08E6C
:1033E0000028CFD1606888B94346002201212046D9
:1033F00001F014FA08B103200FE72068C168A06B40
:10340000421CA2630170E08F401EE087A06AB842B0
:1034100010D1434600220121204601F0FFF918B1E6
:10342000606D40F002000FE02068C068ADF8000059
:10343000BDF80000434601228021204601F0EEF94C
:1034400020B1606D40F010006065D4E784F85160F1
:10345000A06AB84214D120688168C943C9060FD454
:10346000616D41F002016165016821F40051016064
:103470002068016841F40051016084F85050CBE6A7
:1034800084F850500020C8E60220C6E64FF0E02144
:103490000428086903D020F004000861704740F058
:1034A0000400FAE7704710B5401EB0F1807F01D3E9
:1034B000012010BD4FF0E02460610F21601701F082
:1034C00089F80020A06107202061002010BD10B500
:1034D000FFF7E8FF10BD7047704730B590F838200F
:1034E000012A20D0012280F83820022380F83930C8
:1034F00003685C6824F070045C6003685C680D68B5
:103500002C435C6003689C6824F080049C60036822
:103510009C6849680C439C6080F83920002180F841
:103520003810084630BD022030BD10B5040003D06D
:1035300094F8390010B107E0012010BD002084F894
:103540003800204600F00CF8022084F83900211DD4
:10355000206801F0E7FE012084F83900002010BD4A
:1035600030B5214B0268002420494020204D85B011
:103570009A421DD1CA6942F00202CA61C969CDE905
:10358000000401F00201049169461A480294FEF712
:1035900087FB0120CDE90004694628460294FEF726
:1035A0007FFB002211461D20FEF746FF1D2017E07D
:1035B000114B9A4216D1CA6942F00402CA61C96924
:1035C000CDE9000401F00401049169462846029403
:1035D000FEF766FB002211461E20FEF72DFF1E207F
:1035E000FEF71EFF05B030BD000400400010024091
:1035F000000C0140000801400008004070B504467E
:1036000090F83800012817D0012584F8385002209E
:1036100084F839002068826822F0770222F47F4221
:1036200082600868502837D00DDC202859D005DC8E
:1036300088B3102841D151E0022070BD302853D00A
:1036400040283AD13FE060282ED070280BD0B0F54A
:10365000805F03D0B0F5005F2FD110E02068816853
:1036600021F0070115E0CB68D1E90121206801F0C4
:1036700096FE2168886840F0770088601DE0CB687E
:10368000D1E90121206801F08AFE2068816841F4B7
:103690008041816011E01EE0CA684968206801F03D
:1036A000CEFE5021206806E0CA684968206801F013
:1036B00003FF6021206801F07CFE84F8395000206F
:1036C00084F8380070BDCA684968206801F0B7FE08
:1036D00040212068EFE700212068ECE710212068F6
:1036E000E9E720212068E6E730212068E3E70000D1
:1036F00010B50E4A0168914217D1017E0C4C012988
:103700000BD0022911D1042100F0CAF980B2208027
:103710000121BDE8104002F0A5BC002100F0C0F975
:103720002188401A80B20021F3E710BD0008004054
:10373000040000202DE9F041044690F838000D46C1
:1037400001283DD0012684F83860022084F8390031
:10375000AAB3042A46D02068082A55D0D5E9002704
:10376000E968036A23F480530362D0F81CC0036A3B
:103770002CF4407C4CEA07274FF6FF7C27F4704777
:103780000CEA013139434FF4204723F4204307EA80
:1037900002321A43C16102622068C16921F44061AA
:1037A000C1612068C169AA6841EA0221C0F81C1001
:1037B00084F83960002084F83800BDE8F08101E029
:1037C0000220FAE7D5E90012EB68206801F048FE14
:1037D0002068816921F00C01816120688169AA68F3
:1037E00011430FE0D5E90012EB68206801F076FE86
:1037F0002068816921F44061816120688169AA683B
:1038000041EA02218161D3E7D5E9002C2F7B016ACF
:1038100021F480710162C169036A21F0030141EA68
:103820000C0121F0F00C39074FF420674CEA1161CC
:1038300023F4206307EA02221A43C161026220686E
:10384000C16921F00C01C1612068C169AA681143F6
:10385000ACE710B5040003D094F8390010B107E0CC
:10386000012010BD002084F83800204600F00CF83C
:10387000022084F83900211D206801F053FD012049
:1038800084F83900002010BD704710B50268044666
:1038900031B1042908D0082915D00C2908D116E027
:1038A000D06840F0020002E0D06840F00400D06030
:1038B0000122206801F068FD2068016841F00101E3
:1038C0000160002010BDD06840F00800EFE7D0682C
:1038D00040F01000EBE710B50268044631B104294E
:1038E00008D008291ED00C2908D11FE0D06820F08C
:1038F000020002E0D06820F00400D06000222068BE
:1039000001F042FD2068016A41F21112114207D113
:10391000016A9210114203D1016821F00101016096
:10392000002010BDD06820F00800E6E7D06820F045
:103930001000E2E770B50446006801694FF0000529
:10394000C943890715D4C168C943890711D4E91E41
:10395000016101202076206880698007204602D01E
:10396000FFF7C6FE04E000F098F8204600F096F855
:10397000257620680169C943490717D4C168C9433E
:10398000490713D46FF004010161022020762068FA
:10399000806910F4407F204602D0FFF7A9FE04E0C2
:1039A00000F07BF8204600F079F825762068016960
:1039B000C943090716D4C168C943090712D46FF077
:1039C00008010161042020762068C0698007204634
:1039D00002D0FFF78DFE04E000F05FF8204600F013
:1039E0005DF8257620680169C943C90617D4C16806
:1039F000C943C90613D46FF0100101610820207675
:103A00002068C06910F4407F204602D0FFF770FEA6
:103A100004E000F042F8204600F040F825762068E7
:103A20000169C943C90708D1C168C943C90704D19D
:103A3000891E0161204600F032F820680169C943FF
:103A4000090609D4C168C943090605D46FF080018D
:103A500001612046FFF73FFD20680169C94349061F
:103A600009D4C168C943490605D46FF0400101611A
:103A7000204600F058F820680169C94389060BD434
:103A8000C168C943890607D46FF02001016120464F
:103A9000BDE87040FFF720BD70BD704770477047AC
:103AA00090F838300022012B0AD0012380F83830FA
:103AB00041B1042909D008290AD00C290DD10AE006
:103AC0000220704701684A6B07E001688A6B04E0D6
:103AD0000168CA6B01E001680A6C002180F83810A7
:103AE0001046704770B5044690F83800012818D089
:103AF000012584F83850022084F83900204601F06E
:103B000060FC2068C16821F04001C1602068C16884
:103B100021F48041C16084F83950002084F83800D5
:103B200070BD022070BD704770B5040004D094F8D9
:103B30003900002510B106E0012070BD84F838502E
:103B4000204600F021F8022084F839002068C1687E
:103B500021F40051C160204601F0F4FC20680169A5
:103B600021F4904101612068416921F02A014161FD
:103B70002068C16841F40051C160E563012084F808
:103B80003900002070BD000010B50068114986B0F2
:103B900088421DD11048816941F48041816180696A
:103BA0000E4C00F4804004904FF40070009002200E
:103BB00001900320039069462046FEF771F800212A
:103BC0002015CDE90001029169462046FEF768F80C
:103BD00006B010BD0038014000100240000801404E
:103BE0002DE9F047044690F8390099460D46012822
:103BF00001D0222858D12DB322B394F838000128DF
:103C000052D0012684F838600027E76394F8390021
:103C100022281AD05FF0120084F83900A284E284CE
:103C20004FF48058E08C4B46401EE084A0684FF073
:103C3000000240454FF08001204613D101F03AFDCB
:103C400008BB04E00120BDE8F0873220E4E72888C3
:103C50002168C0F308004860206908B16D1C08E0C5
:103C6000AD1C06E001F026FD68B9216815F8010BCE
:103C70004860E08C0028D5D14B46002240212046E8
:103C800001F018FD08B10320DDE794F8390032286F
:103C900006D084F8396000BF84F838700020D2E77D
:103CA000222084F83900F7E70220CCE7FEE710B5C0
:103CB000406A01680A6822F480620A600021418536
:103CC000202280F8352080F83610816B41F01001F9
:103CD0008163FEF7D7F810BD10B5446A2323002294
:103CE0001149204600F072F818B1A06B40F0200096
:103CF000A0632068016841F4007101602068416898
:103D000021F40061416000206085202184F8351095
:103D100084F83600A06B0028204602D0FEF7B2F8E7
:103D200010BDFEF7C3F910BD0400010001684A6927
:103D3000D24352050DD44A6922F480624A610421BB
:103D40008163202180F83510002180F83410012093
:103D5000704700207047000070B5044600680D46AB
:103D60001646016841F480710160134600224FF04D
:103D70000111204600F02AF898B92069B0F5804F6B
:103D800011D00620216800EAD51040F0F00008614B
:103D900032460D49204600F05EF838B1A06B042889
:103DA00010D0032070BD05F0FE0000E0E8B22168ED
:103DB000086105493246891F204600F04CF800286A
:103DC000ECD170BD012070BD080001002DE9F05F4D
:103DD0001E4690460C460546FEF74EF881464FF0CB
:103DE000000A4FF0200BC4F30747B8F1000F09D0C9
:103DF00024E0701C06D0D6B1FEF73EF8A0EB090017
:103E0000B04214D82868012F06D0806924EA000047
:103E10000004000C1BD0ECE74069F7E7701C0DD0E4
:103E20002EB1FEF729F8A0EB0900B04206D985F8BB
:103E300035B085F834A00320BDE8F09F2868012F35
:103E400007D0806924EA00000004000CE6D00020BE
:103E5000F2E74069F6E72DE9F04791460D46044642
:103E6000FEF70AF8824600274FF02008C5F3074600
:103E700029E020684069C043400512D420680168E9
:103E800041F4007101602068416921F48061416161
:103E90000420A06384F8358084F834700120BDE8E4
:103EA000F087B9F1FF3F0ED0B9F1000F05D0FDF753
:103EB000E3FFA0EB0A01494505D984F8358084F871
:103EC00034700320EBE72068012E06D0806925EAD4
:103ED00000000004000CE2D0CBE74069F7E770B5C2
:103EE0000D460446FDF7C8FF064619E02046FFF7D9
:103EF0001DFF08B1012070BD681C11D025B1FDF770
:103F0000BBFF801BA8420BD954F8380F40F02000AB
:103F100044F804092020607000202070032070BD48
:103F200020684069C0430006E0D4002070BD000056
:103F300010B509A214210B4801F008FC09483021F2
:103F400080F831104FF41671C1824FF47A7181827A
:103F50007821018310BD0000414C4C494741544F2A
:103F600052000000F013002010B508A214210948E7
:103F700001F0ECFB0748082180F831104FF4A071E4
:103F8000C182490081826421018310BD43414D45B6
:103F900000000000680E002010B508A21421094896
:103FA00001F0D4FB0748402180F831104FF4C8716C
:103FB000C182490081828C21018310BD4B45454C53
:103FC0004F470000480F002010B508A214210948EF
:103FD00001F0BCFB0748082180F831104FF42F7125
:103FE000C18249008182C821018310BD4E494345E9
:103FF00000000000A00E002010B508A214210A48FD
:1040000001F0A4FB08480C2180F831109621C182F0
:104010004FF4E17181823221018310BD5052494E2B
:104020004345544F4E000000D80E002010B509A2A1
:1040300014210D4801F08AFB0B480C2180F8311047
:104040004FF4E171C18240F246518182C82101835F
:1040500010BD00005052494E4345544F4E5F5054DE
:104060003232343000000000100F002010B508A2DA
:1040700014210A4801F06AFB0848402180F83110F9
:10408000FA21C182490081827821018310BD00009C
:10409000535441524C494E4500000000B8130020D3
:1040A000F0B5074687B00A20FDF7E0FD464D3846DB
:1040B00001270F210026AC1C062856D2DFE800F0AD
:1040C00055032D353D460220287002F07DFA2670FA
:1040D0003E496670A6700B78002B1CD0A868202281
:1040E00030FA02F402D0121D0A7203E0121F12F01D
:1040F000FF02F5D1012B02D0022B06D00AE04B7A49
:104100000A7A002100F06AFF04E04B7A0A7A002163
:1041100000F096FF2F7007B0F0BD6078401CC0B271
:1041200060700F2821D966701FE06078401EC0B211
:104130006070FA2819D9617017E02078401CC0B26D
:104140002070082800D32670207808E02078401ED0
:10415000C0B22070FA2801D907202070C0B28200B6
:10416000A868D04000F00F0060702078637882006B
:104170009140A86893408843034315A2182101A8E1
:10418000AB6001F0E3FA22210F2000F035FD01229F
:10419000124901A800F028FE2C236A2219461E208D
:1041A000009600F03EFC009720782C23A0EBC00086
:1041B00000F16A018AB2633080B2194600F031FC26
:1041C00000F026FEA7E70000EC030020AC1300205F
:1041D00050494E3A20253038580000000C0000208D
:1041E00010B5FDF77FF91049097800291BD0012986
:1041F0000DD002290FD0032915D10C4904280ED067
:10420000052810D1887A0A280BD20A200AE0BDE8D6
:104210001040FFF745BFBDE81040FDF78BB9022005
:1042200000E0401C887210BDEC030020AC1300209D
:1042300010B5FDF721FE0A4C2168401A401CB0F56C
:10424000FA7F0BD9FDF718FE20604FF400510548A6
:10425000FDF709FEBDE8104000F024BF10BD0000CE
:1042600000000020001001403EB50F480D49002518
:1042700001600124C0E90254456145604FF46021AA
:104280000461C161FDF7AAFA00B1FEE707208DE8DD
:10429000310069460448FDF7EDF9002800D0FEE73B
:1042A0003EBD000000240140100400202DE9F0472D
:1042B000494886B0816941F010018161816901F04E
:1042C00010010491816941F020018161816901F04F
:1042D00020010491816941F004018161816901F04B
:1042E00004010491816941F0080181618069DFF86E
:1042F000EC8000F008004FF40054049000222146A6
:104300004046FDF7B4FDDFF8D8900122022148466F
:10431000FDF7ADFD41F23006002231464846FDF77B
:10432000A6FDDFF8C0A0A700002239465046FDF7E1
:104330009EFD0125CDE900450224694640460394CF
:10434000FDF7AEFC1F2000902748CDE90104694627
:104350005046FDF7A5FC1120CDE9004069464846CE
:104360000394FDF79DFCCDE900656946484603943A
:10437000FDF796FCCDE90075694650460394FDF7BC
:104380008FFC00220A210620FEF756F80620FEF7D1
:1043900047F800220A210720FEF74EF80720FEF713
:1043A0003FF800220A210820FEF746F80820FEF711
:1043B00037F800220A210920FEF73EF80920FEF70F
:1043C0002FF80A2100220846FEF736F80A20FEF7E9
:1043D00027F806B0BDE8F087001002400010014049
:1043E000000C014000080140000011100B4810B5FE
:1043F000094901600A49416000214FF4804281600F
:10440000C0E9031241618161C1610162FDF73CFDB8
:10441000002800D0FEE710BD0054004040040020FA
:10442000801A06000E4810B50C4901604FF48271E5
:10443000416000218160C1604FF400720161C0E9F8
:1044400005120822C0E90721416281620A21C16286
:10445000FEF7B8FC002800D0FEE710BD0038004091
:104460007C04002070B5304890B02E49016047218F
:104470000024C0E901144FF6FF71C0E90314FFF7EF
:1044800054F800B1FEE74FF48050099009A926487E
:10449000FFF7B4F800B1FEE72348FFF7DAF900B1FF
:1044A000FEE7042004905020CDE9050404A91E482D
:1044B0000894FFF717FB00B1FEE78020CDE90D401F
:1044C0000DA91948FFF709F800B1FEE70126CDE96B
:1044D000004602940022694613480394FFF72AF924
:1044E00000B1FEE702250095042269460E480195B9
:1044F000FFF720F900B1FEE7CDE900460822694642
:104500000948FFF717F900B1FEE700950C2269464C
:1045100005480195FFF70EF9002800D0FEE710B01E
:1045200070BD000000040040D404002010B52748EE
:1045300090B02549016047210024C0E901144FF6DD
:10454000FF71C0E90314FEF7F0FF00B1FEE74FF47E
:104550008050099009A91D48FFF750F800B1FEE707
:104560001A48FFF776F900B1FEE7042004905020C6
:10457000CDE9050404A915480894FFF7B3FA00B182
:10458000FEE78020CDE90D400DA91048FEF7A5FFFC
:1045900000B1FEE70120CDE9004002940022694607
:1045A0000A480394FFF7C6F800B1FEE70220009026
:1045B0000190042269460548FFF7BCF8002800D0A6
:1045C000FEE710B010BD00000008004010050020FC
:1045D000FEE770470907090E002806DA00F00F0011
:1045E00000F1E02080F8141D704700F1E02080F811
:1045F0000014704770470000024620210148FDF773
:1046000036BC0000000C0140024610210148FDF7B5
:104610002EBC0000000C01401FB5D0E90812CDE906
:10462000021290F830100346009109A26421134849
:1046300001F08CF81148FBF797FD04B082B2BDE899
:1046400010404FF47A730D490D48FFF7C9BA0000C6
:1046500050726F746F636F6C2025733A202564204D
:10466000426974207C204B45593A3078256C6C584F
:104670002048455820200A0D0000000004060020B4
:104680004C05002070B5044688B016460D46002043
:1046900000F0A6FA00F006FD23462AA2182102A87F
:1046A00001F054F80F210A2000F0A6FA0122264951
:1046B00002A800F099FB0F21502000F09DFA94F819
:1046C000303022A2182102A801F040F801221E4930
:1046D00002A800F089FBD4E90801CDE900011DA280
:1046E000182102A801F032F81A210A2000F084FAF9
:1046F0000122154902A800F077FB55EA06001DD0FB
:10470000334616A2182102A801F020F825210A201C
:1047100000F072FA01220C4902A800F065FB2B465A
:1047200011A2182102A801F011F830210A2000F08E
:1047300063FA0122044902A800F056FB00F068FB6E
:1047400008B070BD25733A000C000020256420429B
:1047500069740000256C6C58000000004649582020
:104760002D2D3E2025580000484F50202D2D3E2055
:10477000255800002DE9F8430746884600262419ED
:104780006D41414632463846FBF7CCFC00F0010053
:10479000761C0443F6B2402EF1D32A4621460B483C
:1047A000FFF770FF2B460AA264211648009400F020
:1047B000CDFF1448FBF7D8FC01B082B2BDE8F0434E
:1047C0004FF47A730F491048FFF70ABA480F0020D8
:1047D00052657665727365202020202020202020DD
:1047E000202020202020202020204B65793A30787E
:1047F0002558207C20307825582048455820200A0C
:104800000D000000040600204C05002001494870FE
:1048100070470000EC030020012070472DE9F047AD
:104820001D4690460E460446FDF726FB07465FEA06
:1048300008004FF000084FF4005A4FF0010926D04D
:1048400034E0681C23D025B1FDF716FBC01BA8423D
:104850001DD92068416821F0E001416020680168AD
:1048600021F040010160A06A504509D1206801682B
:1048700021F4005101602068016841F40051016099
:1048800084F8519084F850800320BDE8F0872068B8
:10489000806836EA0000D4D10DE0681C06D0002DF7
:1048A000D7D0FDF7E9FAC01BA842D2D820688068AB
:1048B00036EA0000F1D00020E7E700002DE9FF4FC5
:1048C0000746C2F1010014460FFA80F8C2EBC4306B
:1048D00040000FFA80FA82B00E46081981B24FF0FC
:1048E00001090025B8B2059A00F020F9301B81B209
:1048F000B8B2059A00F01AF93819B1B280B2059A27
:1049000000F014F9B1B2381B57E000BFB8F1000F46
:1049100009DB0AF102000FFA80FA641E08EB0A00B4
:1049200024B20FFA80F809F102000FFA80F96D1C29
:1049300008EB09002DB20FFA80F8781906EB040B8A
:1049400001901FFA8BF180B2059A00F0EFF8781B06
:1049500000901FFA8BF180B2059A00F0E7F80198F9
:10496000A6EB040B1FFA8BF180B2059A00F0DEF87B
:1049700000981FFA8BF180B2059A00F0D7F8381929
:1049800006EB050B01901FFA8BF180B2059A00F03F
:10499000CDF8381B00901FFA8BF180B2059A00F019
:1049A000C5F80198A6EB050B1FFA8BF180B2059AAA
:1049B00000F0BCF800981FFA8BF180B2059A00F065
:1049C000B5F8A542A2DB06B0BDE8F08F2DE9F843AB
:1049D0001F46DDF820900D46064680281FD2402D48
:1049E0001DD2B018802802D3C6F1800082B2E81927
:1049F000402802D3C5F1400087B2002406EB02082C
:104A00000BE0281983B281B21FFA88F23046CDF844
:104A1000009000F006F8641CE4B2BC42F1D9BDE895
:104A2000F8832DE9FC4F1D4614460E4607468028A4
:104A300000D37F27802C00D37F24402E00D33F2635
:104A4000402D00D33F25A74201D2E01B00E0381BD8
:104A50000FFA80F9AE4201D2A81B00E0701B0FFADA
:104A600080FA4FF0FF30A74201D2012100E0014659
:104A70000191AE4200D2012083464846D14501DC77
:104A8000CAF1000000EBD07040F34F08B9F1000FFD
:104A900023D0BAF1000F35D0C9F1000000903146A3
:104AA00038460B9A00F042F8A74201D1AE4227D017
:104AB00000994046884506DDA8EB0A010FFA81F807
:104AC000019939448FB25045E9DA08EB09000FFA31
:104AD00080F806EB0B0086B2E1E7B54202D2284629
:104AE000354686B2BC4200D2A7B234B206E0A1B2CB
:104AF00038460B9A00F01AF8641C24B2AC42F6DD7A
:104B0000BDE8FC8FB54200D2AEB2BC4202D2204614
:104B10003C4687B23DB206E0A8B231460B9A00F09F
:104B200005F86D1C2DB2A542F6DDE9E770B58028C9
:104B300015D2402913D20C4B0124A3F108061D798C
:104B400001F007039C40C908336800EBC1100DB1A8
:104B500032B101E0012A03D0195CA143195470BDA0
:104B6000195C2143FAE700001C0000202DE9F84100
:104B70001E46DDF81C800D46044680282ED2402DAE
:104B80002CD2A018802802D3C4F1800082B2A819C8
:104B9000402802D3C5F1400086B2A718BAB20B462E
:104BA0002046CDF80080FFF73CFF2E44B3B2BAB2E6
:104BB000B1B22046CDF80080FFF733FF2246B3B2F2
:104BC00029461046CDF80080FFF72BFFB3B2BAB2EA
:104BD000B8B22946CDF80080FFF723FFBDE8F88181
:104BE00030B1FF2203484FF480610068FBF7AABA96
:104BF0000022F7E714000020014A1080518070471E
:104C00001C000020544910B548604FF47A73052207
:104C10007821FDF7A9F908B1002010BD6420FDF747
:104C200025F8AE220021782001F0BCFC20220021D2
:104C3000782001F0B7FC10220021782001F0B2FCAE
:104C4000B0220021782001F0ADFCC822002178209C
:104C500001F0A8FC00221146782001F0A3FC1022EC
:104C60000021782001F09EFC40220021782001F0F4
:104C700099FC81220021782001F094FCFF22002180
:104C8000782001F08FFCA1220021782001F08AFC1D
:104C9000A6220021782001F085FCA822002178209E
:104CA00001F080FC3F220021782001F07BFCA4224F
:104CB0000021782001F076FCD3220021782001F039
:104CC00071FC00221146782001F06CFCD5220021F5
:104CD000782001F067FCF0220021782001F062FCCE
:104CE000D9220021782001F05DFC222200217820C9
:104CF00001F058FCDA220021782001F053FC122246
:104D00000021782001F04EFCDB220021782001F008
:104D100049FC20220021782001F044FC8D22002152
:104D2000782001F03FFC14220021782001F03AFCA9
:104D3000AF220021782001F035FC0020FFF750FF62
:104D400000F066F80448002108300180418001210C
:104D50004171084610BD0000140000202DE9F04705
:104D600092460E4681460025DFF878802BE000BF92
:104D7000A9F1200000FB01507268002432F8107085
:104D80001DE000BF07FA04F0000409D5B8F80210CE
:104D9000B8F800002944204489B280B252460BE0A2
:104DA000BAF1000F1BD00022B8F80210B8F80000CA
:104DB0002944204489B280B2FFF7B8FE641C3078E1
:104DC000A042DFD86D1C7178A942D1D8B8F8001084
:104DD000327848461144A8F80010BDE8F087012257
:104DE000E2E700001C00002070B515460E460446A0
:104DF00009E02A463146FFF7B1FF2178884201D009
:104E0000C8B270BD641C20780028F2D1C0B270BD59
:104E100010B509494020094C08700A4640F2014388
:104E200078216068FDF7DAF96068C06AFCF790FDE8
:104E30000128F9D110BD0000800F002014000020CF
:104E40002DE9F84307468846002624196D4141465E
:104E500032463846FBF766F900F00100761C044341
:104E6000F6B2402EF1D32A4621460D48FFF70AFC40
:104E70002B460CA264211848009400F067FC1648E9
:104E8000FBF772F982B24FF47A7313491348FEF7B5
:104E9000A7FE034A0020C2E90A00BDE8F88300002B
:104EA000B81300205265766572736520202020209B
:104EB00020202020202020202020202020204B6582
:104EC000793A30782558207C20307825582048457C
:104ED0005820200A0D000000040600204C05002088
:104EE0007047000010B5144888B0012404700020F9
:104EF000FFF776FE00211E20FFF77EFE0F480078A8
:104F0000012802D0022802D006E00DA200E00FA284
:104F1000182101A800F01AFC01220F4901A8FFF78F
:104F200063FF0A238022194600200094FFF779FDD1
:104F3000FFF76EFF08B010BDEC030020AC1300209B
:104F400053656E642043616D6500000053656E64B7
:104F5000204E6963650000000C00002010B50E4C67
:104F600000284FF0000009D0FFF746FBA08AFCF7AD
:104F700039FB0120FFF740FBE08A08E0FFF73CFB2C
:104F8000E08AFCF72FFB0120FFF736FBA08ABDE883
:104F90001040FCF727BB0000680E002010B50E4C37
:104FA00000284FF0000009D0FFF726FBA08AFCF78D
:104FB0002FFB0120FFF720FBE08A08E0FFF71CFB36
:104FC000E08AFCF725FB0120FFF716FBA08ABDE86D
:104FD0001040FCF71DBB0000A00E00202DE9F0479B
:104FE00005461C4691460E460120FFF70DFBDFF8F3
:104FF0004C801BE00120FFF7B1FF4A460AE0521E39
:10500000174628463146FBF78DF800F00100FFF700
:10501000A5FFFAB2002AF2D10020FFF7EDFAB8F8A6
:10502000160000EB00104000FCF7DCFA641EE4B24E
:10503000E0D2BDE8F0470020FFF7E6BA680E002096
:105040002DE9F04705461C4691460E460120FFF724
:10505000DBFADFF84C801BE00120FFF79FFF4A4698
:105060000AE0521E174628463146FBF75BF800F06F
:105070000100FFF793FFFAB2002AF2D10020FFF7F8
:10508000BBFAB8F8160000EB00104000FCF7C0FABD
:10509000641EE4B2E0D2BDE8F0470020FFF7B4BAE6
:1050A000A00E0020F8B501240A2380221946002012
:1050B0000094FFF7B6FC0327082312220021692081
:1050C0000094FFF753FD0123022204217C20FFF707
:1050D000F5FB00207A220090062302211046FFF7FC
:1050E000A0FC6B265FF0000505EB8500304404232F
:1050F000032202210094FFF769FC6D1CEDB2BD4252
:10510000F2D34D4D6878002867D006231A46012156
:1051100004200094FFF72AFD0522012300211046F8
:105120000094FFF77EFC0922012300211046009421
:10513000FFF777FC012203210620FFF7F7FC01228D
:1051400003210820FFF7F2FC032304221946022062
:105150000094FFF766FC06230422194602200094FF
:10516000FFF75FFC03230C2219460A200094FFF787
:1051700058FC06230C2219460A200094FFF751FC24
:1051800068784FF0000201282BD002210846FFF773
:10519000CDFC002205210220FFF7C8FC00220421DB
:1051A0000C20FFF7C3FC002207210C20FFF7BEFCF8
:1051B000012204210220FFF7B9FC0122072102206D
:1051C000FFF7B4FC012202210C20FFF7AFFC012203
:1051D00005210C20FFF7AAFC6C70BDE8F840FFF732
:1051E00017BE04210220FFF7A1FC002207210220A4
:1051F000FFF79CFC002202210C20FFF797FC002205
:1052000005210C20FFF792FC022101220846FFF73E
:105210008DFC012205210220FFF788FC01220421D8
:105220000C20FFF783FC012207210C20FFF77EFCF6
:1052300002206870D1E70000EC03002010B5FDF7F4
:1052400083F8BDE81040FEF742B930B593B00121B4
:105250000804CDE900100025029502240491CDE94F
:1052600007404FF4E01009906846FDF7EBFA00B1F3
:10527000FEE70AA90F2081E831004FF48060CDE9F4
:105280000D0502210AA8FDF79FF900B1FEE74FF4D2
:10529000004011900F940FA8FDF700F900B1FEE750
:1052A000FDF756FA4FF47A71B0FBF1F0FEF7FBF818
:1052B0000420FEF7EBF800221146501EFDF7BCF863
:1052C00013B030BD0D48016841F001010160416833
:1052D0000B4A1140416001680A4A114001600168AF
:1052E00021F480210160416821F4FE0141604FF406
:1052F0001F0181600449C00308607047001002402C
:105300000000FFF8FFFFF6FE08ED00E00148FEF7A1
:1053100011BB0000D40400200148FEF70BBB0000C5
:1053200010050020F0B50268144B154C154D4FF0D8
:105330008047984205D0B84203D0A04201D0A8428D
:1053400003D122F070064A683243984205D0B84231
:1053500003D0A04201D0A84203D122F44074CA680D
:10536000224302608A68C2620A688262984201D15E
:105370000969016301214161F0BD0000002C014079
:10538000000400400008004010B50123046A8B406F
:105390009C430462036A8A401343036210BD10B544
:1053A000846842EA032224F47F440A432243826051
:1053B00010BD826822F070020A4342F0070181604A
:1053C000704730B403689A6822F070044A68224338
:1053D00022F007040A6822439A604A6812F00F0F0D
:1053E0001FD11211082A1CD2DFE802F01B1B1B1B65
:1053F0000B1D23040B69D1E90221006830BCFFF7C3
:10540000CEBF0268136A146A24F0010414620268B1
:105410009469096924F0F00444EA0111916100687B
:10542000036230BC70470A698968006830BC00F0CC
:1054300006B80A698968006830BC00F03DB810B54C
:10544000036A046A24F001040462846924F0F0040D
:1054500044EA021423F00A020A438461026210BD86
:1054600070B5046A24F0010404628469056A0F4E71
:10547000B04208D0B0F1804F05D00D4EB04202D0FE
:105480000C4EB04203D124F00304144301E044F075
:1054900001041A0724F0F00444EA126225F00A031A
:1054A00001F00A0119438261016270BD002C0140C4
:1054B000000400400008004010B5036A23F0100308
:1054C00003628369046A23F4704343EA023224F0DE
:1054D000A00343EA01118261016210BD30B5046A84
:1054E00024F0100404628469056A24F4407444EAD8
:1054F000022222F470444FF6FF7202EA0332224382
:10550000A02425F0A00304EA01111943826101627D
:1055100030BD0000002810B509484FF0000107D049
:10552000FEF7B3F9BDE8104004210548FEF7ADB918
:10553000FEF7D1F9BDE8104004210148FEF7CBB9D0
:10554000100500202DE9F041044600680169E26879
:1055500021F44051114301612169A0680843616948
:1055600008432168CA6841F20C639A430243CA6047
:1055700020684169A26921F44071114341614C499D
:1055800020686425322688423CD1FDF7FFF800EB05
:10559000C00101EB001061688900B0FBF1F7FDF775
:1055A000F5F800EBC00101EB00106168B04689001E
:1055B000B0FBF1F0B0FBF5F06FF01801484307EBDA
:1055C000800106EB0110B0FBF5F000F0F006FDF7EE
:1055D000DDF800EBC00101EB001061688900B0FB51
:1055E000F1F0B0FBF5F006EB0016FDF7CFF800EB9D
:1055F000C00101EB001061688900B0FBF1F7FDF715
:10560000C5F83BE0FDF7AAF800EBC00101EB001084
:1056100061688900B0FBF1F7FDF7A0F800EBC0016D
:1056200001EB00106168B0468900B0FBF1F0B0FBFF
:10563000F5F06FF01801484307EB800106EB01100D
:10564000B0FBF5F000F0F006FDF788F800EBC001C4
:1056500001EB001061688900B0FBF1F0B0FBF5F0E0
:1056600006EB0016FDF77AF800EBC00101EB001025
:1056700061688900B0FBF1F7FDF770F800EBC0013D
:1056800001EB001061688900B0FBF1F0B0FBF5F0B0
:105690006FF01801484307EB800108EB0110B0FBE5
:1056A000F5F0216800F00F0030448860BDE8F0811B
:1056B000003801402DE9F0471D4690460E4604464D
:1056C000FCF7DAFB07465FEA08004FF000094FF0ED
:1056D000010808D030E0681C05D095B1FCF7CCFB80
:1056E000C01BA8420DD82068006836EA0000F2D13D
:1056F00027E0681C20D025B1FCF7BEFBC01BA842E8
:105700001AD92068C16821F08001C1602068C16891
:1057100021F02001C1602068C16821F48071C1605E
:105720002068416921F00101416184F8398084F8E1
:1057300038900320BDE8F0872068006836EA000052
:10574000D7D00020F6E7FEE7FEE700000FB41CB557
:105750000246002007AC00290BD0491ECDE90021EC
:10576000054B6A462146069800F0DAF8009A0021B7
:1057700011701CBC5DF814FB4F60000802E008C803
:10578000121F08C1002AFAD170477047002001E0BB
:1057900001C1121F002AFBD1704700002DE9FF5FF5
:1057A00082B00021DDE90430020DDDF840B0034392
:1057B00018D044F61050A2F2FF324243151411984B
:1057C00001281FD0A5EB0B00401C5FEA000A4FF038
:1057D00000064E4FDFF83891B046504615D5CAF155
:1057E000000413E0119801244AA3012801D16FEAB3
:1057F0000B010298119AC0E90031C0E9024206B0DB
:10580000BDE8F09FCBF10000DFE704460021404AED
:10581000491842EB0450CDE9001012E0E00707D030
:1058200032463B4640464946FAF75EFE8046894688
:1058300032463B4610461946FAF756FE06460F46D4
:105840006410002CEAD1DDE90401DDE90023BAF19E
:10585000000F06DAFAF748FE42464B46FAF744FED6
:1058600005E0FAF7B3FE42464B46FAF7AFFE0446B0
:105870000E460022284BFAF731FF03D84FF0FF30D5
:10588000014607E00022254B20463146FAF785FD08
:10589000FAF70BFF102409E0002C0ADB0A22002390
:1058A000FAF713FD039B30321A55641E50EA0102C9
:1058B000F2D1641C039AC4F111031444119A012A11
:1058C00003D0012208430DD10AE0084304D0002090
:1058D0004FF0110B119072E7A3EB0B056D1E0DE05D
:1058E0005B4504DD4FF0000205F1010504E003DA39
:1058F0004FF00002A5F10105002AECD002981199A1
:10590000C0E90231C0E9004579E700000000144019
:105910000000F03F300000000000F0430000E03FD6
:105920002DE9FF4F95B09B468946064600250FE2BC
:10593000252877D100242746F84A0121059400E064
:10594000044316F8013F203B01FA03F01042F7D15F
:1059500030782A2811D06FF02F033078A0F1300270
:10596000092A16D8059A44F0020402EB820203EBDE
:1059700042021044761C0590EFE759F8042B05927B
:10598000002A03DA504244F40054059044F0020423
:10599000761C30782E2816D116F8010F44F0040436
:1059A0002A280DD06FF02F023078A0F13003092B98
:1059B00009D807EB870302EB4303C718761CF3E70C
:1059C00059F8047B761C30786C280FD006DC4C2804
:1059D00017D068280DD06A2814D104E0742810D09C
:1059E0007A280FD10DE044F400140AE044F4801446
:1059F00001E044F440147278824202D104F580142C
:105A0000761C761C307866280BD013DC582877D0AB
:105A100009DC002875D04528F6D04628F4D0472860
:105A20001AD19DE118E0632835D0642879D0652823
:105A300012D195E1702873D008DC6728F1D069286D
:105A40006FD06E280DD06F2806D1B5E073282CD00A
:105A5000752875D0782874D05A46179990476D1CD0
:105A600075E1C4F30250022809D003280DD0D9F8FB
:105A7000001004280DD00D6009F1040967E1D9F880
:105A80000010EA17C1E90052F6E7D9F800100D80BE
:105A9000F2E70D70F0E719F8041B8DF800100020F4
:105AA0008DF80100EA46012003E059F804AB4FF0FD
:105AB000FF3061074FF0000102D40DE008F1010151
:105AC0008846B9420FDA8045F8DB1AF80810002939
:105AD000F4D108E008F1010188468142FADB1AF8A6
